{
	"DIOToken.sol": {
		"DioToken": {
			"abi": [
				{
					"inputs": [],
					"stateMutability": "nonpayable",
					"type": "constructor"
				},
				{
					"anonymous": false,
					"inputs": [
						{
							"indexed": true,
							"internalType": "address",
							"name": "owner",
							"type": "address"
						},
						{
							"indexed": true,
							"internalType": "address",
							"name": "spender",
							"type": "address"
						},
						{
							"indexed": false,
							"internalType": "uint256",
							"name": "",
							"type": "uint256"
						}
					],
					"name": "Approval",
					"type": "event"
				},
				{
					"anonymous": false,
					"inputs": [
						{
							"indexed": true,
							"internalType": "address",
							"name": "from",
							"type": "address"
						},
						{
							"indexed": true,
							"internalType": "address",
							"name": "to",
							"type": "address"
						},
						{
							"indexed": false,
							"internalType": "uint256",
							"name": "value",
							"type": "uint256"
						}
					],
					"name": "Transfer",
					"type": "event"
				},
				{
					"inputs": [],
					"name": "TOKEN_NAME",
					"outputs": [
						{
							"internalType": "string",
							"name": "",
							"type": "string"
						}
					],
					"stateMutability": "view",
					"type": "function"
				},
				{
					"inputs": [],
					"name": "TOKEN_SYMBOL",
					"outputs": [
						{
							"internalType": "string",
							"name": "",
							"type": "string"
						}
					],
					"stateMutability": "view",
					"type": "function"
				},
				{
					"inputs": [
						{
							"internalType": "address",
							"name": "owner",
							"type": "address"
						},
						{
							"internalType": "address",
							"name": "delegate",
							"type": "address"
						}
					],
					"name": "allowance",
					"outputs": [
						{
							"internalType": "uint256",
							"name": "",
							"type": "uint256"
						}
					],
					"stateMutability": "view",
					"type": "function"
				},
				{
					"inputs": [
						{
							"internalType": "address",
							"name": "delegate",
							"type": "address"
						},
						{
							"internalType": "uint256",
							"name": "valueTokens",
							"type": "uint256"
						}
					],
					"name": "approve",
					"outputs": [
						{
							"internalType": "bool",
							"name": "",
							"type": "bool"
						}
					],
					"stateMutability": "nonpayable",
					"type": "function"
				},
				{
					"inputs": [
						{
							"internalType": "address",
							"name": "tokenOwner",
							"type": "address"
						}
					],
					"name": "balanceOf",
					"outputs": [
						{
							"internalType": "uint256",
							"name": "",
							"type": "uint256"
						}
					],
					"stateMutability": "view",
					"type": "function"
				},
				{
					"inputs": [],
					"name": "decimals",
					"outputs": [
						{
							"internalType": "uint8",
							"name": "",
							"type": "uint8"
						}
					],
					"stateMutability": "view",
					"type": "function"
				},
				{
					"inputs": [],
					"name": "totalSupply",
					"outputs": [
						{
							"internalType": "uint256",
							"name": "",
							"type": "uint256"
						}
					],
					"stateMutability": "view",
					"type": "function"
				},
				{
					"inputs": [
						{
							"internalType": "address",
							"name": "receiver",
							"type": "address"
						},
						{
							"internalType": "uint256",
							"name": "valueTokens",
							"type": "uint256"
						}
					],
					"name": "transfer",
					"outputs": [
						{
							"internalType": "bool",
							"name": "",
							"type": "bool"
						}
					],
					"stateMutability": "nonpayable",
					"type": "function"
				},
				{
					"inputs": [
						{
							"internalType": "address",
							"name": "owner",
							"type": "address"
						},
						{
							"internalType": "address",
							"name": "buyer",
							"type": "address"
						},
						{
							"internalType": "uint256",
							"name": "valueTokens",
							"type": "uint256"
						}
					],
					"name": "transferFrom",
					"outputs": [
						{
							"internalType": "bool",
							"name": "",
							"type": "bool"
						}
					],
					"stateMutability": "nonpayable",
					"type": "function"
				}
			],
			"devdoc": {
				"kind": "dev",
				"methods": {},
				"version": 1
			},
			"evm": {
				"assembly": "    /* \"DIOToken.sol\":761:2616  contract DioToken is IERC20 {... */\n  mstore(0x40, 0x80)\n    /* \"DIOToken.sol\":1076:1084  10 ether */\n  0x8ac7230489e80000\n    /* \"DIOToken.sol\":1053:1084  uint256 totalSupply_ = 10 ether */\n  0x02\n  sstore\n    /* \"DIOToken.sol\":1091:1156  constructor(){... */\n  callvalue\n  dup1\n  iszero\n  tag_1\n  jumpi\n  0x00\n  dup1\n  revert\ntag_1:\n  pop\n    /* \"DIOToken.sol\":1137:1149  totalSupply_ */\n  sload(0x02)\n    /* \"DIOToken.sol\":1114:1122  balances */\n  0x00\n    /* \"DIOToken.sol\":1114:1134  balances[msg.sender] */\n  dup1\n    /* \"DIOToken.sol\":1123:1133  msg.sender */\n  caller\n    /* \"DIOToken.sol\":1114:1134  balances[msg.sender] */\n  0xffffffffffffffffffffffffffffffffffffffff\n  and\n  0xffffffffffffffffffffffffffffffffffffffff\n  and\n  dup2\n  mstore\n  0x20\n  add\n  swap1\n  dup2\n  mstore\n  0x20\n  add\n  0x00\n  keccak256\n    /* \"DIOToken.sol\":1114:1149  balances[msg.sender] = totalSupply_ */\n  dup2\n  swap1\n  sstore\n  pop\n    /* \"DIOToken.sol\":761:2616  contract DioToken is IERC20 {... */\n  dataSize(sub_0)\n  dup1\n  dataOffset(sub_0)\n  0x00\n  codecopy\n  0x00\n  return\nstop\n\nsub_0: assembly {\n        /* \"DIOToken.sol\":761:2616  contract DioToken is IERC20 {... */\n      mstore(0x40, 0x80)\n      callvalue\n      dup1\n      iszero\n      tag_1\n      jumpi\n      0x00\n      dup1\n      revert\n    tag_1:\n      pop\n      jumpi(tag_2, lt(calldatasize, 0x04))\n      shr(0xe0, calldataload(0x00))\n      dup1\n      0x2a905318\n      gt\n      tag_12\n      jumpi\n      dup1\n      0x2a905318\n      eq\n      tag_7\n      jumpi\n      dup1\n      0x313ce567\n      eq\n      tag_8\n      jumpi\n      dup1\n      0x70a08231\n      eq\n      tag_9\n      jumpi\n      dup1\n      0xa9059cbb\n      eq\n      tag_10\n      jumpi\n      dup1\n      0xdd62ed3e\n      eq\n      tag_11\n      jumpi\n      jump(tag_2)\n    tag_12:\n      dup1\n      0x095ea7b3\n      eq\n      tag_3\n      jumpi\n      dup1\n      0x18160ddd\n      eq\n      tag_4\n      jumpi\n      dup1\n      0x18821400\n      eq\n      tag_5\n      jumpi\n      dup1\n      0x23b872dd\n      eq\n      tag_6\n      jumpi\n    tag_2:\n      0x00\n      dup1\n      revert\n        /* \"DIOToken.sol\":1756:1980  function approve(address delegate, uint256 valueTokens)public override returns (bool){... */\n    tag_3:\n      tag_13\n      0x04\n      dup1\n      calldatasize\n      sub\n      dup2\n      add\n      swap1\n      tag_14\n      swap2\n      swap1\n      tag_15\n      jump\t// in\n    tag_14:\n      tag_16\n      jump\t// in\n    tag_13:\n      mload(0x40)\n      tag_17\n      swap2\n      swap1\n      tag_18\n      jump\t// in\n    tag_17:\n      mload(0x40)\n      dup1\n      swap2\n      sub\n      swap1\n      return\n        /* \"DIOToken.sol\":1162:1259  function totalSupply() public override view returns (uint256){... */\n    tag_4:\n      tag_19\n      tag_20\n      jump\t// in\n    tag_19:\n      mload(0x40)\n      tag_21\n      swap2\n      swap1\n      tag_22\n      jump\t// in\n    tag_21:\n      mload(0x40)\n      dup1\n      swap2\n      sub\n      swap1\n      return\n        /* \"DIOToken.sol\":796:849  string public constant TOKEN_NAME  = \"DIO Token Test\" */\n    tag_5:\n      tag_23\n      tag_24\n      jump\t// in\n    tag_23:\n      mload(0x40)\n      tag_25\n      swap2\n      swap1\n      tag_26\n      jump\t// in\n    tag_25:\n      mload(0x40)\n      dup1\n      swap2\n      sub\n      swap1\n      return\n        /* \"DIOToken.sol\":2130:2612  function transferFrom(address owner, address buyer, uint256 valueTokens) public override returns (bool){... */\n    tag_6:\n      tag_27\n      0x04\n      dup1\n      calldatasize\n      sub\n      dup2\n      add\n      swap1\n      tag_28\n      swap2\n      swap1\n      tag_29\n      jump\t// in\n    tag_28:\n      tag_30\n      jump\t// in\n    tag_27:\n      mload(0x40)\n      tag_31\n      swap2\n      swap1\n      tag_18\n      jump\t// in\n    tag_31:\n      mload(0x40)\n      dup1\n      swap2\n      sub\n      swap1\n      return\n        /* \"DIOToken.sol\":855:898  string public constant TOKEN_SYMBOL = \"DTT\" */\n    tag_7:\n      tag_32\n      tag_33\n      jump\t// in\n    tag_32:\n      mload(0x40)\n      tag_34\n      swap2\n      swap1\n      tag_26\n      jump\t// in\n    tag_34:\n      mload(0x40)\n      dup1\n      swap2\n      sub\n      swap1\n      return\n        /* \"DIOToken.sol\":904:939  uint8 public constant decimals = 18 */\n    tag_8:\n      tag_35\n      tag_36\n      jump\t// in\n    tag_35:\n      mload(0x40)\n      tag_37\n      swap2\n      swap1\n      tag_38\n      jump\t// in\n    tag_37:\n      mload(0x40)\n      dup1\n      swap2\n      sub\n      swap1\n      return\n        /* \"DIOToken.sol\":1265:1387  function balanceOf(address tokenOwner) public override view returns (uint256){... */\n    tag_9:\n      tag_39\n      0x04\n      dup1\n      calldatasize\n      sub\n      dup2\n      add\n      swap1\n      tag_40\n      swap2\n      swap1\n      tag_41\n      jump\t// in\n    tag_40:\n      tag_42\n      jump\t// in\n    tag_39:\n      mload(0x40)\n      tag_43\n      swap2\n      swap1\n      tag_22\n      jump\t// in\n    tag_43:\n      mload(0x40)\n      dup1\n      swap2\n      sub\n      swap1\n      return\n        /* \"DIOToken.sol\":1393:1750  function transfer(address receiver, uint256 valueTokens) public override returns (bool){... */\n    tag_10:\n      tag_44\n      0x04\n      dup1\n      calldatasize\n      sub\n      dup2\n      add\n      swap1\n      tag_45\n      swap2\n      swap1\n      tag_15\n      jump\t// in\n    tag_45:\n      tag_46\n      jump\t// in\n    tag_44:\n      mload(0x40)\n      tag_47\n      swap2\n      swap1\n      tag_18\n      jump\t// in\n    tag_47:\n      mload(0x40)\n      dup1\n      swap2\n      sub\n      swap1\n      return\n        /* \"DIOToken.sol\":1986:2124  function allowance(address owner, address delegate) public override view returns (uint256){... */\n    tag_11:\n      tag_48\n      0x04\n      dup1\n      calldatasize\n      sub\n      dup2\n      add\n      swap1\n      tag_49\n      swap2\n      swap1\n      tag_50\n      jump\t// in\n    tag_49:\n      tag_51\n      jump\t// in\n    tag_48:\n      mload(0x40)\n      tag_52\n      swap2\n      swap1\n      tag_22\n      jump\t// in\n    tag_52:\n      mload(0x40)\n      dup1\n      swap2\n      sub\n      swap1\n      return\n        /* \"DIOToken.sol\":1756:1980  function approve(address delegate, uint256 valueTokens)public override returns (bool){... */\n    tag_16:\n        /* \"DIOToken.sol\":1836:1840  bool */\n      0x00\n        /* \"DIOToken.sol\":1883:1894  valueTokens */\n      dup2\n        /* \"DIOToken.sol\":1851:1858  allowed */\n      0x01\n        /* \"DIOToken.sol\":1851:1870  allowed[msg.sender] */\n      0x00\n        /* \"DIOToken.sol\":1859:1869  msg.sender */\n      caller\n        /* \"DIOToken.sol\":1851:1870  allowed[msg.sender] */\n      0xffffffffffffffffffffffffffffffffffffffff\n      and\n      0xffffffffffffffffffffffffffffffffffffffff\n      and\n      dup2\n      mstore\n      0x20\n      add\n      swap1\n      dup2\n      mstore\n      0x20\n      add\n      0x00\n      keccak256\n        /* \"DIOToken.sol\":1851:1880  allowed[msg.sender][delegate] */\n      0x00\n        /* \"DIOToken.sol\":1871:1879  delegate */\n      dup6\n        /* \"DIOToken.sol\":1851:1880  allowed[msg.sender][delegate] */\n      0xffffffffffffffffffffffffffffffffffffffff\n      and\n      0xffffffffffffffffffffffffffffffffffffffff\n      and\n      dup2\n      mstore\n      0x20\n      add\n      swap1\n      dup2\n      mstore\n      0x20\n      add\n      0x00\n      keccak256\n        /* \"DIOToken.sol\":1851:1894  allowed[msg.sender][delegate] = valueTokens */\n      dup2\n      swap1\n      sstore\n      pop\n        /* \"DIOToken.sol\":1930:1938  delegate */\n      dup3\n        /* \"DIOToken.sol\":1909:1952  Approval(msg.sender, delegate, valueTokens) */\n      0xffffffffffffffffffffffffffffffffffffffff\n      and\n        /* \"DIOToken.sol\":1918:1928  msg.sender */\n      caller\n        /* \"DIOToken.sol\":1909:1952  Approval(msg.sender, delegate, valueTokens) */\n      0xffffffffffffffffffffffffffffffffffffffff\n      and\n      0x8c5be1e5ebec7d5bd14f71427d1e84f3dd0314c0f7b2291e5b200ac8c7c3b925\n        /* \"DIOToken.sol\":1940:1951  valueTokens */\n      dup5\n        /* \"DIOToken.sol\":1909:1952  Approval(msg.sender, delegate, valueTokens) */\n      mload(0x40)\n      tag_54\n      swap2\n      swap1\n      tag_22\n      jump\t// in\n    tag_54:\n      mload(0x40)\n      dup1\n      swap2\n      sub\n      swap1\n      log3\n        /* \"DIOToken.sol\":1969:1973  true */\n      0x01\n        /* \"DIOToken.sol\":1962:1973  return true */\n      swap1\n      pop\n        /* \"DIOToken.sol\":1756:1980  function approve(address delegate, uint256 valueTokens)public override returns (bool){... */\n      swap3\n      swap2\n      pop\n      pop\n      jump\t// out\n        /* \"DIOToken.sol\":1162:1259  function totalSupply() public override view returns (uint256){... */\n    tag_20:\n        /* \"DIOToken.sol\":1215:1222  uint256 */\n      0x00\n        /* \"DIOToken.sol\":1240:1252  totalSupply_ */\n      sload(0x02)\n        /* \"DIOToken.sol\":1233:1252  return totalSupply_ */\n      swap1\n      pop\n        /* \"DIOToken.sol\":1162:1259  function totalSupply() public override view returns (uint256){... */\n      swap1\n      jump\t// out\n        /* \"DIOToken.sol\":796:849  string public constant TOKEN_NAME  = \"DIO Token Test\" */\n    tag_24:\n      mload(0x40)\n      dup1\n      0x40\n      add\n      0x40\n      mstore\n      dup1\n      0x0e\n      dup2\n      mstore\n      0x20\n      add\n      0x44494f20546f6b656e2054657374000000000000000000000000000000000000\n      dup2\n      mstore\n      pop\n      dup2\n      jump\t// out\n        /* \"DIOToken.sol\":2130:2612  function transferFrom(address owner, address buyer, uint256 valueTokens) public override returns (bool){... */\n    tag_30:\n        /* \"DIOToken.sol\":2228:2232  bool */\n      0x00\n        /* \"DIOToken.sol\":2265:2273  balances */\n      dup1\n        /* \"DIOToken.sol\":2265:2280  balances[owner] */\n      0x00\n        /* \"DIOToken.sol\":2274:2279  owner */\n      dup6\n        /* \"DIOToken.sol\":2265:2280  balances[owner] */\n      0xffffffffffffffffffffffffffffffffffffffff\n      and\n      0xffffffffffffffffffffffffffffffffffffffff\n      and\n      dup2\n      mstore\n      0x20\n      add\n      swap1\n      dup2\n      mstore\n      0x20\n      add\n      0x00\n      keccak256\n      sload\n        /* \"DIOToken.sol\":2251:2262  valueTokens */\n      dup3\n        /* \"DIOToken.sol\":2251:2280  valueTokens <=balances[owner] */\n      gt\n      iszero\n        /* \"DIOToken.sol\":2243:2281  require(valueTokens <=balances[owner]) */\n      tag_57\n      jumpi\n      0x00\n      dup1\n      revert\n    tag_57:\n        /* \"DIOToken.sol\":2314:2321  allowed */\n      0x01\n        /* \"DIOToken.sol\":2314:2328  allowed[owner] */\n      0x00\n        /* \"DIOToken.sol\":2322:2327  owner */\n      dup6\n        /* \"DIOToken.sol\":2314:2328  allowed[owner] */\n      0xffffffffffffffffffffffffffffffffffffffff\n      and\n      0xffffffffffffffffffffffffffffffffffffffff\n      and\n      dup2\n      mstore\n      0x20\n      add\n      swap1\n      dup2\n      mstore\n      0x20\n      add\n      0x00\n      keccak256\n        /* \"DIOToken.sol\":2314:2340  allowed[owner][msg.sender] */\n      0x00\n        /* \"DIOToken.sol\":2329:2339  msg.sender */\n      caller\n        /* \"DIOToken.sol\":2314:2340  allowed[owner][msg.sender] */\n      0xffffffffffffffffffffffffffffffffffffffff\n      and\n      0xffffffffffffffffffffffffffffffffffffffff\n      and\n      dup2\n      mstore\n      0x20\n      add\n      swap1\n      dup2\n      mstore\n      0x20\n      add\n      0x00\n      keccak256\n      sload\n        /* \"DIOToken.sol\":2299:2310  valueTokens */\n      dup3\n        /* \"DIOToken.sol\":2299:2340  valueTokens <= allowed[owner][msg.sender] */\n      gt\n      iszero\n        /* \"DIOToken.sol\":2291:2341  require(valueTokens <= allowed[owner][msg.sender]) */\n      tag_58\n      jumpi\n      0x00\n      dup1\n      revert\n    tag_58:\n        /* \"DIOToken.sol\":2388:2399  valueTokens */\n      dup2\n        /* \"DIOToken.sol\":2370:2378  balances */\n      0x00\n        /* \"DIOToken.sol\":2370:2385  balances[owner] */\n      dup1\n        /* \"DIOToken.sol\":2379:2384  owner */\n      dup7\n        /* \"DIOToken.sol\":2370:2385  balances[owner] */\n      0xffffffffffffffffffffffffffffffffffffffff\n      and\n      0xffffffffffffffffffffffffffffffffffffffff\n      and\n      dup2\n      mstore\n      0x20\n      add\n      swap1\n      dup2\n      mstore\n      0x20\n      add\n      0x00\n      keccak256\n      sload\n        /* \"DIOToken.sol\":2370:2399  balances[owner] - valueTokens */\n      tag_59\n      swap2\n      swap1\n      tag_60\n      jump\t// in\n    tag_59:\n        /* \"DIOToken.sol\":2352:2360  balances */\n      0x00\n        /* \"DIOToken.sol\":2352:2367  balances[owner] */\n      dup1\n        /* \"DIOToken.sol\":2361:2366  owner */\n      dup7\n        /* \"DIOToken.sol\":2352:2367  balances[owner] */\n      0xffffffffffffffffffffffffffffffffffffffff\n      and\n      0xffffffffffffffffffffffffffffffffffffffff\n      and\n      dup2\n      mstore\n      0x20\n      add\n      swap1\n      dup2\n      mstore\n      0x20\n      add\n      0x00\n      keccak256\n        /* \"DIOToken.sol\":2352:2399  balances[owner] = balances[owner] - valueTokens */\n      dup2\n      swap1\n      sstore\n      pop\n        /* \"DIOToken.sol\":2466:2477  valueTokens */\n      dup2\n        /* \"DIOToken.sol\":2438:2445  allowed */\n      0x01\n        /* \"DIOToken.sol\":2438:2452  allowed[owner] */\n      0x00\n        /* \"DIOToken.sol\":2446:2451  owner */\n      dup7\n        /* \"DIOToken.sol\":2438:2452  allowed[owner] */\n      0xffffffffffffffffffffffffffffffffffffffff\n      and\n      0xffffffffffffffffffffffffffffffffffffffff\n      and\n      dup2\n      mstore\n      0x20\n      add\n      swap1\n      dup2\n      mstore\n      0x20\n      add\n      0x00\n      keccak256\n        /* \"DIOToken.sol\":2438:2464  allowed[owner][msg.sender] */\n      0x00\n        /* \"DIOToken.sol\":2453:2463  msg.sender */\n      caller\n        /* \"DIOToken.sol\":2438:2464  allowed[owner][msg.sender] */\n      0xffffffffffffffffffffffffffffffffffffffff\n      and\n      0xffffffffffffffffffffffffffffffffffffffff\n      and\n      dup2\n      mstore\n      0x20\n      add\n      swap1\n      dup2\n      mstore\n      0x20\n      add\n      0x00\n      keccak256\n      sload\n        /* \"DIOToken.sol\":2438:2477  allowed[owner][msg.sender] -valueTokens */\n      tag_61\n      swap2\n      swap1\n      tag_60\n      jump\t// in\n    tag_61:\n        /* \"DIOToken.sol\":2409:2416  allowed */\n      0x01\n        /* \"DIOToken.sol\":2409:2423  allowed[owner] */\n      0x00\n        /* \"DIOToken.sol\":2417:2422  owner */\n      dup7\n        /* \"DIOToken.sol\":2409:2423  allowed[owner] */\n      0xffffffffffffffffffffffffffffffffffffffff\n      and\n      0xffffffffffffffffffffffffffffffffffffffff\n      and\n      dup2\n      mstore\n      0x20\n      add\n      swap1\n      dup2\n      mstore\n      0x20\n      add\n      0x00\n      keccak256\n        /* \"DIOToken.sol\":2409:2435  allowed[owner][msg.sender] */\n      0x00\n        /* \"DIOToken.sol\":2424:2434  msg.sender */\n      caller\n        /* \"DIOToken.sol\":2409:2435  allowed[owner][msg.sender] */\n      0xffffffffffffffffffffffffffffffffffffffff\n      and\n      0xffffffffffffffffffffffffffffffffffffffff\n      and\n      dup2\n      mstore\n      0x20\n      add\n      swap1\n      dup2\n      mstore\n      0x20\n      add\n      0x00\n      keccak256\n        /* \"DIOToken.sol\":2409:2477  allowed[owner][msg.sender] = allowed[owner][msg.sender] -valueTokens */\n      dup2\n      swap1\n      sstore\n      pop\n        /* \"DIOToken.sol\":2523:2534  valueTokens */\n      dup2\n        /* \"DIOToken.sol\":2505:2513  balances */\n      0x00\n        /* \"DIOToken.sol\":2505:2520  balances[buyer] */\n      dup1\n        /* \"DIOToken.sol\":2514:2519  buyer */\n      dup6\n        /* \"DIOToken.sol\":2505:2520  balances[buyer] */\n      0xffffffffffffffffffffffffffffffffffffffff\n      and\n      0xffffffffffffffffffffffffffffffffffffffff\n      and\n      dup2\n      mstore\n      0x20\n      add\n      swap1\n      dup2\n      mstore\n      0x20\n      add\n      0x00\n      keccak256\n        /* \"DIOToken.sol\":2505:2534  balances[buyer] = valueTokens */\n      dup2\n      swap1\n      sstore\n        /* \"DIOToken.sol\":2487:2495  balances */\n      0x00\n        /* \"DIOToken.sol\":2487:2502  balances[buyer] */\n      dup1\n        /* \"DIOToken.sol\":2496:2501  buyer */\n      dup6\n        /* \"DIOToken.sol\":2487:2502  balances[buyer] */\n      0xffffffffffffffffffffffffffffffffffffffff\n      and\n      0xffffffffffffffffffffffffffffffffffffffff\n      and\n      dup2\n      mstore\n      0x20\n      add\n      swap1\n      dup2\n      mstore\n      0x20\n      add\n      0x00\n      keccak256\n        /* \"DIOToken.sol\":2487:2534  balances[buyer] = balances[buyer] = valueTokens */\n      dup2\n      swap1\n      sstore\n      pop\n        /* \"DIOToken.sol\":2565:2570  buyer */\n      dup3\n        /* \"DIOToken.sol\":2549:2584  Transfer(owner, buyer, valueTokens) */\n      0xffffffffffffffffffffffffffffffffffffffff\n      and\n        /* \"DIOToken.sol\":2558:2563  owner */\n      dup5\n        /* \"DIOToken.sol\":2549:2584  Transfer(owner, buyer, valueTokens) */\n      0xffffffffffffffffffffffffffffffffffffffff\n      and\n      0xddf252ad1be2c89b69c2b068fc378daa952ba7f163c4a11628f55a4df523b3ef\n        /* \"DIOToken.sol\":2572:2583  valueTokens */\n      dup5\n        /* \"DIOToken.sol\":2549:2584  Transfer(owner, buyer, valueTokens) */\n      mload(0x40)\n      tag_62\n      swap2\n      swap1\n      tag_22\n      jump\t// in\n    tag_62:\n      mload(0x40)\n      dup1\n      swap2\n      sub\n      swap1\n      log3\n        /* \"DIOToken.sol\":2601:2605  true */\n      0x01\n        /* \"DIOToken.sol\":2594:2605  return true */\n      swap1\n      pop\n        /* \"DIOToken.sol\":2130:2612  function transferFrom(address owner, address buyer, uint256 valueTokens) public override returns (bool){... */\n      swap4\n      swap3\n      pop\n      pop\n      pop\n      jump\t// out\n        /* \"DIOToken.sol\":855:898  string public constant TOKEN_SYMBOL = \"DTT\" */\n    tag_33:\n      mload(0x40)\n      dup1\n      0x40\n      add\n      0x40\n      mstore\n      dup1\n      0x03\n      dup2\n      mstore\n      0x20\n      add\n      0x4454540000000000000000000000000000000000000000000000000000000000\n      dup2\n      mstore\n      pop\n      dup2\n      jump\t// out\n        /* \"DIOToken.sol\":904:939  uint8 public constant decimals = 18 */\n    tag_36:\n        /* \"DIOToken.sol\":937:939  18 */\n      0x12\n        /* \"DIOToken.sol\":904:939  uint8 public constant decimals = 18 */\n      dup2\n      jump\t// out\n        /* \"DIOToken.sol\":1265:1387  function balanceOf(address tokenOwner) public override view returns (uint256){... */\n    tag_42:\n        /* \"DIOToken.sol\":1334:1341  uint256 */\n      0x00\n        /* \"DIOToken.sol\":1359:1367  balances */\n      dup1\n        /* \"DIOToken.sol\":1359:1379  balances[tokenOwner] */\n      0x00\n        /* \"DIOToken.sol\":1368:1378  tokenOwner */\n      dup4\n        /* \"DIOToken.sol\":1359:1379  balances[tokenOwner] */\n      0xffffffffffffffffffffffffffffffffffffffff\n      and\n      0xffffffffffffffffffffffffffffffffffffffff\n      and\n      dup2\n      mstore\n      0x20\n      add\n      swap1\n      dup2\n      mstore\n      0x20\n      add\n      0x00\n      keccak256\n      sload\n        /* \"DIOToken.sol\":1352:1379  return balances[tokenOwner] */\n      swap1\n      pop\n        /* \"DIOToken.sol\":1265:1387  function balanceOf(address tokenOwner) public override view returns (uint256){... */\n      swap2\n      swap1\n      pop\n      jump\t// out\n        /* \"DIOToken.sol\":1393:1750  function transfer(address receiver, uint256 valueTokens) public override returns (bool){... */\n    tag_46:\n        /* \"DIOToken.sol\":1475:1479  bool */\n      0x00\n        /* \"DIOToken.sol\":1513:1521  balances */\n      dup1\n        /* \"DIOToken.sol\":1513:1533  balances[msg.sender] */\n      0x00\n        /* \"DIOToken.sol\":1522:1532  msg.sender */\n      caller\n        /* \"DIOToken.sol\":1513:1533  balances[msg.sender] */\n      0xffffffffffffffffffffffffffffffffffffffff\n      and\n      0xffffffffffffffffffffffffffffffffffffffff\n      and\n      dup2\n      mstore\n      0x20\n      add\n      swap1\n      dup2\n      mstore\n      0x20\n      add\n      0x00\n      keccak256\n      sload\n        /* \"DIOToken.sol\":1498:1509  valueTokens */\n      dup3\n        /* \"DIOToken.sol\":1498:1533  valueTokens <= balances[msg.sender] */\n      gt\n      iszero\n        /* \"DIOToken.sol\":1490:1534  require(valueTokens <= balances[msg.sender]) */\n      tag_65\n      jumpi\n      0x00\n      dup1\n      revert\n    tag_65:\n        /* \"DIOToken.sol\":1590:1601  valueTokens */\n      dup2\n        /* \"DIOToken.sol\":1567:1575  balances */\n      0x00\n        /* \"DIOToken.sol\":1567:1587  balances[msg.sender] */\n      dup1\n        /* \"DIOToken.sol\":1576:1586  msg.sender */\n      caller\n        /* \"DIOToken.sol\":1567:1587  balances[msg.sender] */\n      0xffffffffffffffffffffffffffffffffffffffff\n      and\n      0xffffffffffffffffffffffffffffffffffffffff\n      and\n      dup2\n      mstore\n      0x20\n      add\n      swap1\n      dup2\n      mstore\n      0x20\n      add\n      0x00\n      keccak256\n      sload\n        /* \"DIOToken.sol\":1567:1601  balances[msg.sender] - valueTokens */\n      tag_66\n      swap2\n      swap1\n      tag_60\n      jump\t// in\n    tag_66:\n        /* \"DIOToken.sol\":1544:1552  balances */\n      0x00\n        /* \"DIOToken.sol\":1544:1564  balances[msg.sender] */\n      dup1\n        /* \"DIOToken.sol\":1553:1563  msg.sender */\n      caller\n        /* \"DIOToken.sol\":1544:1564  balances[msg.sender] */\n      0xffffffffffffffffffffffffffffffffffffffff\n      and\n      0xffffffffffffffffffffffffffffffffffffffff\n      and\n      dup2\n      mstore\n      0x20\n      add\n      swap1\n      dup2\n      mstore\n      0x20\n      add\n      0x00\n      keccak256\n        /* \"DIOToken.sol\":1544:1601  balances[msg.sender] = balances[msg.sender] - valueTokens */\n      dup2\n      swap1\n      sstore\n      pop\n        /* \"DIOToken.sol\":1653:1664  valueTokens */\n      dup2\n        /* \"DIOToken.sol\":1632:1640  balances */\n      0x00\n        /* \"DIOToken.sol\":1632:1650  balances[receiver] */\n      dup1\n        /* \"DIOToken.sol\":1641:1649  receiver */\n      dup6\n        /* \"DIOToken.sol\":1632:1650  balances[receiver] */\n      0xffffffffffffffffffffffffffffffffffffffff\n      and\n      0xffffffffffffffffffffffffffffffffffffffff\n      and\n      dup2\n      mstore\n      0x20\n      add\n      swap1\n      dup2\n      mstore\n      0x20\n      add\n      0x00\n      keccak256\n      sload\n        /* \"DIOToken.sol\":1632:1664  balances[receiver] + valueTokens */\n      tag_67\n      swap2\n      swap1\n      tag_68\n      jump\t// in\n    tag_67:\n        /* \"DIOToken.sol\":1611:1619  balances */\n      0x00\n        /* \"DIOToken.sol\":1611:1629  balances[receiver] */\n      dup1\n        /* \"DIOToken.sol\":1620:1628  receiver */\n      dup6\n        /* \"DIOToken.sol\":1611:1629  balances[receiver] */\n      0xffffffffffffffffffffffffffffffffffffffff\n      and\n      0xffffffffffffffffffffffffffffffffffffffff\n      and\n      dup2\n      mstore\n      0x20\n      add\n      swap1\n      dup2\n      mstore\n      0x20\n      add\n      0x00\n      keccak256\n        /* \"DIOToken.sol\":1611:1664  balances[receiver] = balances[receiver] + valueTokens */\n      dup2\n      swap1\n      sstore\n      pop\n        /* \"DIOToken.sol\":1700:1708  receiver */\n      dup3\n        /* \"DIOToken.sol\":1679:1722  Transfer(msg.sender, receiver, valueTokens) */\n      0xffffffffffffffffffffffffffffffffffffffff\n      and\n        /* \"DIOToken.sol\":1688:1698  msg.sender */\n      caller\n        /* \"DIOToken.sol\":1679:1722  Transfer(msg.sender, receiver, valueTokens) */\n      0xffffffffffffffffffffffffffffffffffffffff\n      and\n      0xddf252ad1be2c89b69c2b068fc378daa952ba7f163c4a11628f55a4df523b3ef\n        /* \"DIOToken.sol\":1710:1721  valueTokens */\n      dup5\n        /* \"DIOToken.sol\":1679:1722  Transfer(msg.sender, receiver, valueTokens) */\n      mload(0x40)\n      tag_69\n      swap2\n      swap1\n      tag_22\n      jump\t// in\n    tag_69:\n      mload(0x40)\n      dup1\n      swap2\n      sub\n      swap1\n      log3\n        /* \"DIOToken.sol\":1739:1743  true */\n      0x01\n        /* \"DIOToken.sol\":1732:1743  return true */\n      swap1\n      pop\n        /* \"DIOToken.sol\":1393:1750  function transfer(address receiver, uint256 valueTokens) public override returns (bool){... */\n      swap3\n      swap2\n      pop\n      pop\n      jump\t// out\n        /* \"DIOToken.sol\":1986:2124  function allowance(address owner, address delegate) public override view returns (uint256){... */\n    tag_51:\n        /* \"DIOToken.sol\":2068:2075  uint256 */\n      0x00\n        /* \"DIOToken.sol\":2093:2100  allowed */\n      0x01\n        /* \"DIOToken.sol\":2093:2107  allowed[owner] */\n      0x00\n        /* \"DIOToken.sol\":2101:2106  owner */\n      dup5\n        /* \"DIOToken.sol\":2093:2107  allowed[owner] */\n      0xffffffffffffffffffffffffffffffffffffffff\n      and\n      0xffffffffffffffffffffffffffffffffffffffff\n      and\n      dup2\n      mstore\n      0x20\n      add\n      swap1\n      dup2\n      mstore\n      0x20\n      add\n      0x00\n      keccak256\n        /* \"DIOToken.sol\":2093:2117  allowed[owner][delegate] */\n      0x00\n        /* \"DIOToken.sol\":2108:2116  delegate */\n      dup4\n        /* \"DIOToken.sol\":2093:2117  allowed[owner][delegate] */\n      0xffffffffffffffffffffffffffffffffffffffff\n      and\n      0xffffffffffffffffffffffffffffffffffffffff\n      and\n      dup2\n      mstore\n      0x20\n      add\n      swap1\n      dup2\n      mstore\n      0x20\n      add\n      0x00\n      keccak256\n      sload\n        /* \"DIOToken.sol\":2086:2117  return allowed[owner][delegate] */\n      swap1\n      pop\n        /* \"DIOToken.sol\":1986:2124  function allowance(address owner, address delegate) public override view returns (uint256){... */\n      swap3\n      swap2\n      pop\n      pop\n      jump\t// out\n        /* \"#utility.yul\":88:205   */\n    tag_72:\n        /* \"#utility.yul\":197:198   */\n      0x00\n        /* \"#utility.yul\":194:195   */\n      dup1\n        /* \"#utility.yul\":187:199   */\n      revert\n        /* \"#utility.yul\":334:460   */\n    tag_74:\n        /* \"#utility.yul\":371:378   */\n      0x00\n        /* \"#utility.yul\":411:453   */\n      0xffffffffffffffffffffffffffffffffffffffff\n        /* \"#utility.yul\":404:409   */\n      dup3\n        /* \"#utility.yul\":400:454   */\n      and\n        /* \"#utility.yul\":389:454   */\n      swap1\n      pop\n        /* \"#utility.yul\":334:460   */\n      swap2\n      swap1\n      pop\n      jump\t// out\n        /* \"#utility.yul\":466:562   */\n    tag_75:\n        /* \"#utility.yul\":503:510   */\n      0x00\n        /* \"#utility.yul\":532:556   */\n      tag_98\n        /* \"#utility.yul\":550:555   */\n      dup3\n        /* \"#utility.yul\":532:556   */\n      tag_74\n      jump\t// in\n    tag_98:\n        /* \"#utility.yul\":521:556   */\n      swap1\n      pop\n        /* \"#utility.yul\":466:562   */\n      swap2\n      swap1\n      pop\n      jump\t// out\n        /* \"#utility.yul\":568:690   */\n    tag_76:\n        /* \"#utility.yul\":641:665   */\n      tag_100\n        /* \"#utility.yul\":659:664   */\n      dup2\n        /* \"#utility.yul\":641:665   */\n      tag_75\n      jump\t// in\n    tag_100:\n        /* \"#utility.yul\":634:639   */\n      dup2\n        /* \"#utility.yul\":631:666   */\n      eq\n        /* \"#utility.yul\":621:684   */\n      tag_101\n      jumpi\n        /* \"#utility.yul\":680:681   */\n      0x00\n        /* \"#utility.yul\":677:678   */\n      dup1\n        /* \"#utility.yul\":670:682   */\n      revert\n        /* \"#utility.yul\":621:684   */\n    tag_101:\n        /* \"#utility.yul\":568:690   */\n      pop\n      jump\t// out\n        /* \"#utility.yul\":696:835   */\n    tag_77:\n        /* \"#utility.yul\":742:747   */\n      0x00\n        /* \"#utility.yul\":780:786   */\n      dup2\n        /* \"#utility.yul\":767:787   */\n      calldataload\n        /* \"#utility.yul\":758:787   */\n      swap1\n      pop\n        /* \"#utility.yul\":796:829   */\n      tag_103\n        /* \"#utility.yul\":823:828   */\n      dup2\n        /* \"#utility.yul\":796:829   */\n      tag_76\n      jump\t// in\n    tag_103:\n        /* \"#utility.yul\":696:835   */\n      swap3\n      swap2\n      pop\n      pop\n      jump\t// out\n        /* \"#utility.yul\":841:918   */\n    tag_78:\n        /* \"#utility.yul\":878:885   */\n      0x00\n        /* \"#utility.yul\":907:912   */\n      dup2\n        /* \"#utility.yul\":896:912   */\n      swap1\n      pop\n        /* \"#utility.yul\":841:918   */\n      swap2\n      swap1\n      pop\n      jump\t// out\n        /* \"#utility.yul\":924:1046   */\n    tag_79:\n        /* \"#utility.yul\":997:1021   */\n      tag_106\n        /* \"#utility.yul\":1015:1020   */\n      dup2\n        /* \"#utility.yul\":997:1021   */\n      tag_78\n      jump\t// in\n    tag_106:\n        /* \"#utility.yul\":990:995   */\n      dup2\n        /* \"#utility.yul\":987:1022   */\n      eq\n        /* \"#utility.yul\":977:1040   */\n      tag_107\n      jumpi\n        /* \"#utility.yul\":1036:1037   */\n      0x00\n        /* \"#utility.yul\":1033:1034   */\n      dup1\n        /* \"#utility.yul\":1026:1038   */\n      revert\n        /* \"#utility.yul\":977:1040   */\n    tag_107:\n        /* \"#utility.yul\":924:1046   */\n      pop\n      jump\t// out\n        /* \"#utility.yul\":1052:1191   */\n    tag_80:\n        /* \"#utility.yul\":1098:1103   */\n      0x00\n        /* \"#utility.yul\":1136:1142   */\n      dup2\n        /* \"#utility.yul\":1123:1143   */\n      calldataload\n        /* \"#utility.yul\":1114:1143   */\n      swap1\n      pop\n        /* \"#utility.yul\":1152:1185   */\n      tag_109\n        /* \"#utility.yul\":1179:1184   */\n      dup2\n        /* \"#utility.yul\":1152:1185   */\n      tag_79\n      jump\t// in\n    tag_109:\n        /* \"#utility.yul\":1052:1191   */\n      swap3\n      swap2\n      pop\n      pop\n      jump\t// out\n        /* \"#utility.yul\":1197:1671   */\n    tag_15:\n        /* \"#utility.yul\":1265:1271   */\n      0x00\n        /* \"#utility.yul\":1273:1279   */\n      dup1\n        /* \"#utility.yul\":1322:1324   */\n      0x40\n        /* \"#utility.yul\":1310:1319   */\n      dup4\n        /* \"#utility.yul\":1301:1308   */\n      dup6\n        /* \"#utility.yul\":1297:1320   */\n      sub\n        /* \"#utility.yul\":1293:1325   */\n      slt\n        /* \"#utility.yul\":1290:1409   */\n      iszero\n      tag_111\n      jumpi\n        /* \"#utility.yul\":1328:1407   */\n      tag_112\n      tag_72\n      jump\t// in\n    tag_112:\n        /* \"#utility.yul\":1290:1409   */\n    tag_111:\n        /* \"#utility.yul\":1448:1449   */\n      0x00\n        /* \"#utility.yul\":1473:1526   */\n      tag_113\n        /* \"#utility.yul\":1518:1525   */\n      dup6\n        /* \"#utility.yul\":1509:1515   */\n      dup3\n        /* \"#utility.yul\":1498:1507   */\n      dup7\n        /* \"#utility.yul\":1494:1516   */\n      add\n        /* \"#utility.yul\":1473:1526   */\n      tag_77\n      jump\t// in\n    tag_113:\n        /* \"#utility.yul\":1463:1526   */\n      swap3\n      pop\n        /* \"#utility.yul\":1419:1536   */\n      pop\n        /* \"#utility.yul\":1575:1577   */\n      0x20\n        /* \"#utility.yul\":1601:1654   */\n      tag_114\n        /* \"#utility.yul\":1646:1653   */\n      dup6\n        /* \"#utility.yul\":1637:1643   */\n      dup3\n        /* \"#utility.yul\":1626:1635   */\n      dup7\n        /* \"#utility.yul\":1622:1644   */\n      add\n        /* \"#utility.yul\":1601:1654   */\n      tag_80\n      jump\t// in\n    tag_114:\n        /* \"#utility.yul\":1591:1654   */\n      swap2\n      pop\n        /* \"#utility.yul\":1546:1664   */\n      pop\n        /* \"#utility.yul\":1197:1671   */\n      swap3\n      pop\n      swap3\n      swap1\n      pop\n      jump\t// out\n        /* \"#utility.yul\":1677:1767   */\n    tag_81:\n        /* \"#utility.yul\":1711:1718   */\n      0x00\n        /* \"#utility.yul\":1754:1759   */\n      dup2\n        /* \"#utility.yul\":1747:1760   */\n      iszero\n        /* \"#utility.yul\":1740:1761   */\n      iszero\n        /* \"#utility.yul\":1729:1761   */\n      swap1\n      pop\n        /* \"#utility.yul\":1677:1767   */\n      swap2\n      swap1\n      pop\n      jump\t// out\n        /* \"#utility.yul\":1773:1882   */\n    tag_82:\n        /* \"#utility.yul\":1854:1875   */\n      tag_117\n        /* \"#utility.yul\":1869:1874   */\n      dup2\n        /* \"#utility.yul\":1854:1875   */\n      tag_81\n      jump\t// in\n    tag_117:\n        /* \"#utility.yul\":1849:1852   */\n      dup3\n        /* \"#utility.yul\":1842:1876   */\n      mstore\n        /* \"#utility.yul\":1773:1882   */\n      pop\n      pop\n      jump\t// out\n        /* \"#utility.yul\":1888:2098   */\n    tag_18:\n        /* \"#utility.yul\":1975:1979   */\n      0x00\n        /* \"#utility.yul\":2013:2015   */\n      0x20\n        /* \"#utility.yul\":2002:2011   */\n      dup3\n        /* \"#utility.yul\":1998:2016   */\n      add\n        /* \"#utility.yul\":1990:2016   */\n      swap1\n      pop\n        /* \"#utility.yul\":2026:2091   */\n      tag_119\n        /* \"#utility.yul\":2088:2089   */\n      0x00\n        /* \"#utility.yul\":2077:2086   */\n      dup4\n        /* \"#utility.yul\":2073:2090   */\n      add\n        /* \"#utility.yul\":2064:2070   */\n      dup5\n        /* \"#utility.yul\":2026:2091   */\n      tag_82\n      jump\t// in\n    tag_119:\n        /* \"#utility.yul\":1888:2098   */\n      swap3\n      swap2\n      pop\n      pop\n      jump\t// out\n        /* \"#utility.yul\":2104:2222   */\n    tag_83:\n        /* \"#utility.yul\":2191:2215   */\n      tag_121\n        /* \"#utility.yul\":2209:2214   */\n      dup2\n        /* \"#utility.yul\":2191:2215   */\n      tag_78\n      jump\t// in\n    tag_121:\n        /* \"#utility.yul\":2186:2189   */\n      dup3\n        /* \"#utility.yul\":2179:2216   */\n      mstore\n        /* \"#utility.yul\":2104:2222   */\n      pop\n      pop\n      jump\t// out\n        /* \"#utility.yul\":2228:2450   */\n    tag_22:\n        /* \"#utility.yul\":2321:2325   */\n      0x00\n        /* \"#utility.yul\":2359:2361   */\n      0x20\n        /* \"#utility.yul\":2348:2357   */\n      dup3\n        /* \"#utility.yul\":2344:2362   */\n      add\n        /* \"#utility.yul\":2336:2362   */\n      swap1\n      pop\n        /* \"#utility.yul\":2372:2443   */\n      tag_123\n        /* \"#utility.yul\":2440:2441   */\n      0x00\n        /* \"#utility.yul\":2429:2438   */\n      dup4\n        /* \"#utility.yul\":2425:2442   */\n      add\n        /* \"#utility.yul\":2416:2422   */\n      dup5\n        /* \"#utility.yul\":2372:2443   */\n      tag_83\n      jump\t// in\n    tag_123:\n        /* \"#utility.yul\":2228:2450   */\n      swap3\n      swap2\n      pop\n      pop\n      jump\t// out\n        /* \"#utility.yul\":2456:2555   */\n    tag_84:\n        /* \"#utility.yul\":2508:2514   */\n      0x00\n        /* \"#utility.yul\":2542:2547   */\n      dup2\n        /* \"#utility.yul\":2536:2548   */\n      mload\n        /* \"#utility.yul\":2526:2548   */\n      swap1\n      pop\n        /* \"#utility.yul\":2456:2555   */\n      swap2\n      swap1\n      pop\n      jump\t// out\n        /* \"#utility.yul\":2561:2730   */\n    tag_85:\n        /* \"#utility.yul\":2645:2656   */\n      0x00\n        /* \"#utility.yul\":2679:2685   */\n      dup3\n        /* \"#utility.yul\":2674:2677   */\n      dup3\n        /* \"#utility.yul\":2667:2686   */\n      mstore\n        /* \"#utility.yul\":2719:2723   */\n      0x20\n        /* \"#utility.yul\":2714:2717   */\n      dup3\n        /* \"#utility.yul\":2710:2724   */\n      add\n        /* \"#utility.yul\":2695:2724   */\n      swap1\n      pop\n        /* \"#utility.yul\":2561:2730   */\n      swap3\n      swap2\n      pop\n      pop\n      jump\t// out\n        /* \"#utility.yul\":2736:2875   */\n    tag_86:\n        /* \"#utility.yul\":2825:2831   */\n      dup3\n        /* \"#utility.yul\":2820:2823   */\n      dup2\n        /* \"#utility.yul\":2815:2818   */\n      dup4\n        /* \"#utility.yul\":2809:2832   */\n      mcopy\n        /* \"#utility.yul\":2866:2867   */\n      0x00\n        /* \"#utility.yul\":2857:2863   */\n      dup4\n        /* \"#utility.yul\":2852:2855   */\n      dup4\n        /* \"#utility.yul\":2848:2864   */\n      add\n        /* \"#utility.yul\":2841:2868   */\n      mstore\n        /* \"#utility.yul\":2736:2875   */\n      pop\n      pop\n      pop\n      jump\t// out\n        /* \"#utility.yul\":2881:2983   */\n    tag_87:\n        /* \"#utility.yul\":2922:2928   */\n      0x00\n        /* \"#utility.yul\":2973:2975   */\n      0x1f\n        /* \"#utility.yul\":2969:2976   */\n      not\n        /* \"#utility.yul\":2964:2966   */\n      0x1f\n        /* \"#utility.yul\":2957:2962   */\n      dup4\n        /* \"#utility.yul\":2953:2967   */\n      add\n        /* \"#utility.yul\":2949:2977   */\n      and\n        /* \"#utility.yul\":2939:2977   */\n      swap1\n      pop\n        /* \"#utility.yul\":2881:2983   */\n      swap2\n      swap1\n      pop\n      jump\t// out\n        /* \"#utility.yul\":2989:3366   */\n    tag_88:\n        /* \"#utility.yul\":3077:3080   */\n      0x00\n        /* \"#utility.yul\":3105:3144   */\n      tag_129\n        /* \"#utility.yul\":3138:3143   */\n      dup3\n        /* \"#utility.yul\":3105:3144   */\n      tag_84\n      jump\t// in\n    tag_129:\n        /* \"#utility.yul\":3160:3231   */\n      tag_130\n        /* \"#utility.yul\":3224:3230   */\n      dup2\n        /* \"#utility.yul\":3219:3222   */\n      dup6\n        /* \"#utility.yul\":3160:3231   */\n      tag_85\n      jump\t// in\n    tag_130:\n        /* \"#utility.yul\":3153:3231   */\n      swap4\n      pop\n        /* \"#utility.yul\":3240:3305   */\n      tag_131\n        /* \"#utility.yul\":3298:3304   */\n      dup2\n        /* \"#utility.yul\":3293:3296   */\n      dup6\n        /* \"#utility.yul\":3286:3290   */\n      0x20\n        /* \"#utility.yul\":3279:3284   */\n      dup7\n        /* \"#utility.yul\":3275:3291   */\n      add\n        /* \"#utility.yul\":3240:3305   */\n      tag_86\n      jump\t// in\n    tag_131:\n        /* \"#utility.yul\":3330:3359   */\n      tag_132\n        /* \"#utility.yul\":3352:3358   */\n      dup2\n        /* \"#utility.yul\":3330:3359   */\n      tag_87\n      jump\t// in\n    tag_132:\n        /* \"#utility.yul\":3325:3328   */\n      dup5\n        /* \"#utility.yul\":3321:3360   */\n      add\n        /* \"#utility.yul\":3314:3360   */\n      swap2\n      pop\n        /* \"#utility.yul\":3081:3366   */\n      pop\n        /* \"#utility.yul\":2989:3366   */\n      swap3\n      swap2\n      pop\n      pop\n      jump\t// out\n        /* \"#utility.yul\":3372:3685   */\n    tag_26:\n        /* \"#utility.yul\":3485:3489   */\n      0x00\n        /* \"#utility.yul\":3523:3525   */\n      0x20\n        /* \"#utility.yul\":3512:3521   */\n      dup3\n        /* \"#utility.yul\":3508:3526   */\n      add\n        /* \"#utility.yul\":3500:3526   */\n      swap1\n      pop\n        /* \"#utility.yul\":3572:3581   */\n      dup2\n        /* \"#utility.yul\":3566:3570   */\n      dup2\n        /* \"#utility.yul\":3562:3582   */\n      sub\n        /* \"#utility.yul\":3558:3559   */\n      0x00\n        /* \"#utility.yul\":3547:3556   */\n      dup4\n        /* \"#utility.yul\":3543:3560   */\n      add\n        /* \"#utility.yul\":3536:3583   */\n      mstore\n        /* \"#utility.yul\":3600:3678   */\n      tag_134\n        /* \"#utility.yul\":3673:3677   */\n      dup2\n        /* \"#utility.yul\":3664:3670   */\n      dup5\n        /* \"#utility.yul\":3600:3678   */\n      tag_88\n      jump\t// in\n    tag_134:\n        /* \"#utility.yul\":3592:3678   */\n      swap1\n      pop\n        /* \"#utility.yul\":3372:3685   */\n      swap3\n      swap2\n      pop\n      pop\n      jump\t// out\n        /* \"#utility.yul\":3691:4310   */\n    tag_29:\n        /* \"#utility.yul\":3768:3774   */\n      0x00\n        /* \"#utility.yul\":3776:3782   */\n      dup1\n        /* \"#utility.yul\":3784:3790   */\n      0x00\n        /* \"#utility.yul\":3833:3835   */\n      0x60\n        /* \"#utility.yul\":3821:3830   */\n      dup5\n        /* \"#utility.yul\":3812:3819   */\n      dup7\n        /* \"#utility.yul\":3808:3831   */\n      sub\n        /* \"#utility.yul\":3804:3836   */\n      slt\n        /* \"#utility.yul\":3801:3920   */\n      iszero\n      tag_136\n      jumpi\n        /* \"#utility.yul\":3839:3918   */\n      tag_137\n      tag_72\n      jump\t// in\n    tag_137:\n        /* \"#utility.yul\":3801:3920   */\n    tag_136:\n        /* \"#utility.yul\":3959:3960   */\n      0x00\n        /* \"#utility.yul\":3984:4037   */\n      tag_138\n        /* \"#utility.yul\":4029:4036   */\n      dup7\n        /* \"#utility.yul\":4020:4026   */\n      dup3\n        /* \"#utility.yul\":4009:4018   */\n      dup8\n        /* \"#utility.yul\":4005:4027   */\n      add\n        /* \"#utility.yul\":3984:4037   */\n      tag_77\n      jump\t// in\n    tag_138:\n        /* \"#utility.yul\":3974:4037   */\n      swap4\n      pop\n        /* \"#utility.yul\":3930:4047   */\n      pop\n        /* \"#utility.yul\":4086:4088   */\n      0x20\n        /* \"#utility.yul\":4112:4165   */\n      tag_139\n        /* \"#utility.yul\":4157:4164   */\n      dup7\n        /* \"#utility.yul\":4148:4154   */\n      dup3\n        /* \"#utility.yul\":4137:4146   */\n      dup8\n        /* \"#utility.yul\":4133:4155   */\n      add\n        /* \"#utility.yul\":4112:4165   */\n      tag_77\n      jump\t// in\n    tag_139:\n        /* \"#utility.yul\":4102:4165   */\n      swap3\n      pop\n        /* \"#utility.yul\":4057:4175   */\n      pop\n        /* \"#utility.yul\":4214:4216   */\n      0x40\n        /* \"#utility.yul\":4240:4293   */\n      tag_140\n        /* \"#utility.yul\":4285:4292   */\n      dup7\n        /* \"#utility.yul\":4276:4282   */\n      dup3\n        /* \"#utility.yul\":4265:4274   */\n      dup8\n        /* \"#utility.yul\":4261:4283   */\n      add\n        /* \"#utility.yul\":4240:4293   */\n      tag_80\n      jump\t// in\n    tag_140:\n        /* \"#utility.yul\":4230:4293   */\n      swap2\n      pop\n        /* \"#utility.yul\":4185:4303   */\n      pop\n        /* \"#utility.yul\":3691:4310   */\n      swap3\n      pop\n      swap3\n      pop\n      swap3\n      jump\t// out\n        /* \"#utility.yul\":4316:4402   */\n    tag_89:\n        /* \"#utility.yul\":4351:4358   */\n      0x00\n        /* \"#utility.yul\":4391:4395   */\n      0xff\n        /* \"#utility.yul\":4384:4389   */\n      dup3\n        /* \"#utility.yul\":4380:4396   */\n      and\n        /* \"#utility.yul\":4369:4396   */\n      swap1\n      pop\n        /* \"#utility.yul\":4316:4402   */\n      swap2\n      swap1\n      pop\n      jump\t// out\n        /* \"#utility.yul\":4408:4520   */\n    tag_90:\n        /* \"#utility.yul\":4491:4513   */\n      tag_143\n        /* \"#utility.yul\":4507:4512   */\n      dup2\n        /* \"#utility.yul\":4491:4513   */\n      tag_89\n      jump\t// in\n    tag_143:\n        /* \"#utility.yul\":4486:4489   */\n      dup3\n        /* \"#utility.yul\":4479:4514   */\n      mstore\n        /* \"#utility.yul\":4408:4520   */\n      pop\n      pop\n      jump\t// out\n        /* \"#utility.yul\":4526:4740   */\n    tag_38:\n        /* \"#utility.yul\":4615:4619   */\n      0x00\n        /* \"#utility.yul\":4653:4655   */\n      0x20\n        /* \"#utility.yul\":4642:4651   */\n      dup3\n        /* \"#utility.yul\":4638:4656   */\n      add\n        /* \"#utility.yul\":4630:4656   */\n      swap1\n      pop\n        /* \"#utility.yul\":4666:4733   */\n      tag_145\n        /* \"#utility.yul\":4730:4731   */\n      0x00\n        /* \"#utility.yul\":4719:4728   */\n      dup4\n        /* \"#utility.yul\":4715:4732   */\n      add\n        /* \"#utility.yul\":4706:4712   */\n      dup5\n        /* \"#utility.yul\":4666:4733   */\n      tag_90\n      jump\t// in\n    tag_145:\n        /* \"#utility.yul\":4526:4740   */\n      swap3\n      swap2\n      pop\n      pop\n      jump\t// out\n        /* \"#utility.yul\":4746:5075   */\n    tag_41:\n        /* \"#utility.yul\":4805:4811   */\n      0x00\n        /* \"#utility.yul\":4854:4856   */\n      0x20\n        /* \"#utility.yul\":4842:4851   */\n      dup3\n        /* \"#utility.yul\":4833:4840   */\n      dup5\n        /* \"#utility.yul\":4829:4852   */\n      sub\n        /* \"#utility.yul\":4825:4857   */\n      slt\n        /* \"#utility.yul\":4822:4941   */\n      iszero\n      tag_147\n      jumpi\n        /* \"#utility.yul\":4860:4939   */\n      tag_148\n      tag_72\n      jump\t// in\n    tag_148:\n        /* \"#utility.yul\":4822:4941   */\n    tag_147:\n        /* \"#utility.yul\":4980:4981   */\n      0x00\n        /* \"#utility.yul\":5005:5058   */\n      tag_149\n        /* \"#utility.yul\":5050:5057   */\n      dup5\n        /* \"#utility.yul\":5041:5047   */\n      dup3\n        /* \"#utility.yul\":5030:5039   */\n      dup6\n        /* \"#utility.yul\":5026:5048   */\n      add\n        /* \"#utility.yul\":5005:5058   */\n      tag_77\n      jump\t// in\n    tag_149:\n        /* \"#utility.yul\":4995:5058   */\n      swap2\n      pop\n        /* \"#utility.yul\":4951:5068   */\n      pop\n        /* \"#utility.yul\":4746:5075   */\n      swap3\n      swap2\n      pop\n      pop\n      jump\t// out\n        /* \"#utility.yul\":5081:5555   */\n    tag_50:\n        /* \"#utility.yul\":5149:5155   */\n      0x00\n        /* \"#utility.yul\":5157:5163   */\n      dup1\n        /* \"#utility.yul\":5206:5208   */\n      0x40\n        /* \"#utility.yul\":5194:5203   */\n      dup4\n        /* \"#utility.yul\":5185:5192   */\n      dup6\n        /* \"#utility.yul\":5181:5204   */\n      sub\n        /* \"#utility.yul\":5177:5209   */\n      slt\n        /* \"#utility.yul\":5174:5293   */\n      iszero\n      tag_151\n      jumpi\n        /* \"#utility.yul\":5212:5291   */\n      tag_152\n      tag_72\n      jump\t// in\n    tag_152:\n        /* \"#utility.yul\":5174:5293   */\n    tag_151:\n        /* \"#utility.yul\":5332:5333   */\n      0x00\n        /* \"#utility.yul\":5357:5410   */\n      tag_153\n        /* \"#utility.yul\":5402:5409   */\n      dup6\n        /* \"#utility.yul\":5393:5399   */\n      dup3\n        /* \"#utility.yul\":5382:5391   */\n      dup7\n        /* \"#utility.yul\":5378:5400   */\n      add\n        /* \"#utility.yul\":5357:5410   */\n      tag_77\n      jump\t// in\n    tag_153:\n        /* \"#utility.yul\":5347:5410   */\n      swap3\n      pop\n        /* \"#utility.yul\":5303:5420   */\n      pop\n        /* \"#utility.yul\":5459:5461   */\n      0x20\n        /* \"#utility.yul\":5485:5538   */\n      tag_154\n        /* \"#utility.yul\":5530:5537   */\n      dup6\n        /* \"#utility.yul\":5521:5527   */\n      dup3\n        /* \"#utility.yul\":5510:5519   */\n      dup7\n        /* \"#utility.yul\":5506:5528   */\n      add\n        /* \"#utility.yul\":5485:5538   */\n      tag_77\n      jump\t// in\n    tag_154:\n        /* \"#utility.yul\":5475:5538   */\n      swap2\n      pop\n        /* \"#utility.yul\":5430:5548   */\n      pop\n        /* \"#utility.yul\":5081:5555   */\n      swap3\n      pop\n      swap3\n      swap1\n      pop\n      jump\t// out\n        /* \"#utility.yul\":5561:5741   */\n    tag_91:\n        /* \"#utility.yul\":5609:5686   */\n      0x4e487b7100000000000000000000000000000000000000000000000000000000\n        /* \"#utility.yul\":5606:5607   */\n      0x00\n        /* \"#utility.yul\":5599:5687   */\n      mstore\n        /* \"#utility.yul\":5706:5710   */\n      0x11\n        /* \"#utility.yul\":5703:5704   */\n      0x04\n        /* \"#utility.yul\":5696:5711   */\n      mstore\n        /* \"#utility.yul\":5730:5734   */\n      0x24\n        /* \"#utility.yul\":5727:5728   */\n      0x00\n        /* \"#utility.yul\":5720:5735   */\n      revert\n        /* \"#utility.yul\":5747:5941   */\n    tag_60:\n        /* \"#utility.yul\":5787:5791   */\n      0x00\n        /* \"#utility.yul\":5807:5827   */\n      tag_157\n        /* \"#utility.yul\":5825:5826   */\n      dup3\n        /* \"#utility.yul\":5807:5827   */\n      tag_78\n      jump\t// in\n    tag_157:\n        /* \"#utility.yul\":5802:5827   */\n      swap2\n      pop\n        /* \"#utility.yul\":5841:5861   */\n      tag_158\n        /* \"#utility.yul\":5859:5860   */\n      dup4\n        /* \"#utility.yul\":5841:5861   */\n      tag_78\n      jump\t// in\n    tag_158:\n        /* \"#utility.yul\":5836:5861   */\n      swap3\n      pop\n        /* \"#utility.yul\":5885:5886   */\n      dup3\n        /* \"#utility.yul\":5882:5883   */\n      dup3\n        /* \"#utility.yul\":5878:5887   */\n      sub\n        /* \"#utility.yul\":5870:5887   */\n      swap1\n      pop\n        /* \"#utility.yul\":5909:5910   */\n      dup2\n        /* \"#utility.yul\":5903:5907   */\n      dup2\n        /* \"#utility.yul\":5900:5911   */\n      gt\n        /* \"#utility.yul\":5897:5934   */\n      iszero\n      tag_159\n      jumpi\n        /* \"#utility.yul\":5914:5932   */\n      tag_160\n      tag_91\n      jump\t// in\n    tag_160:\n        /* \"#utility.yul\":5897:5934   */\n    tag_159:\n        /* \"#utility.yul\":5747:5941   */\n      swap3\n      swap2\n      pop\n      pop\n      jump\t// out\n        /* \"#utility.yul\":5947:6138   */\n    tag_68:\n        /* \"#utility.yul\":5987:5990   */\n      0x00\n        /* \"#utility.yul\":6006:6026   */\n      tag_162\n        /* \"#utility.yul\":6024:6025   */\n      dup3\n        /* \"#utility.yul\":6006:6026   */\n      tag_78\n      jump\t// in\n    tag_162:\n        /* \"#utility.yul\":6001:6026   */\n      swap2\n      pop\n        /* \"#utility.yul\":6040:6060   */\n      tag_163\n        /* \"#utility.yul\":6058:6059   */\n      dup4\n        /* \"#utility.yul\":6040:6060   */\n      tag_78\n      jump\t// in\n    tag_163:\n        /* \"#utility.yul\":6035:6060   */\n      swap3\n      pop\n        /* \"#utility.yul\":6083:6084   */\n      dup3\n        /* \"#utility.yul\":6080:6081   */\n      dup3\n        /* \"#utility.yul\":6076:6085   */\n      add\n        /* \"#utility.yul\":6069:6085   */\n      swap1\n      pop\n        /* \"#utility.yul\":6104:6107   */\n      dup1\n        /* \"#utility.yul\":6101:6102   */\n      dup3\n        /* \"#utility.yul\":6098:6108   */\n      gt\n        /* \"#utility.yul\":6095:6131   */\n      iszero\n      tag_164\n      jumpi\n        /* \"#utility.yul\":6111:6129   */\n      tag_165\n      tag_91\n      jump\t// in\n    tag_165:\n        /* \"#utility.yul\":6095:6131   */\n    tag_164:\n        /* \"#utility.yul\":5947:6138   */\n      swap3\n      swap2\n      pop\n      pop\n      jump\t// out\n\n    auxdata: 0xa2646970667358221220ddfbde6ab74855cbbd540a82d1f87e39d9de3619882e7dbb4bd9ecf3e8fe31f964736f6c634300081a0033\n}\n",
				"bytecode": {
					"linkReferences": {},
					"object": "6080604052678ac7230489e80000600255348015601a575f80fd5b506002545f803373ffffffffffffffffffffffffffffffffffffffff1673ffffffffffffffffffffffffffffffffffffffff1681526020019081526020015f2081905550610cae8061006b5f395ff3fe608060405234801561000f575f80fd5b5060043610610091575f3560e01c80632a905318116100645780632a90531814610131578063313ce5671461014f57806370a082311461016d578063a9059cbb1461019d578063dd62ed3e146101cd57610091565b8063095ea7b31461009557806318160ddd146100c557806318821400146100e357806323b872dd14610101575b5f80fd5b6100af60048036038101906100aa91906109cf565b6101fd565b6040516100bc9190610a27565b60405180910390f35b6100cd6102ea565b6040516100da9190610a4f565b60405180910390f35b6100eb6102f3565b6040516100f89190610ad8565b60405180910390f35b61011b60048036038101906101169190610af8565b61032c565b6040516101289190610a27565b60405180910390f35b610139610671565b6040516101469190610ad8565b60405180910390f35b6101576106aa565b6040516101649190610b63565b60405180910390f35b61018760048036038101906101829190610b7c565b6106af565b6040516101949190610a4f565b60405180910390f35b6101b760048036038101906101b291906109cf565b6106f4565b6040516101c49190610a27565b60405180910390f35b6101e760048036038101906101e29190610ba7565b6108bc565b6040516101f49190610a4f565b60405180910390f35b5f8160015f3373ffffffffffffffffffffffffffffffffffffffff1673ffffffffffffffffffffffffffffffffffffffff1681526020019081526020015f205f8573ffffffffffffffffffffffffffffffffffffffff1673ffffffffffffffffffffffffffffffffffffffff1681526020019081526020015f20819055508273ffffffffffffffffffffffffffffffffffffffff163373ffffffffffffffffffffffffffffffffffffffff167f8c5be1e5ebec7d5bd14f71427d1e84f3dd0314c0f7b2291e5b200ac8c7c3b925846040516102d89190610a4f565b60405180910390a36001905092915050565b5f600254905090565b6040518060400160405280600e81526020017f44494f20546f6b656e205465737400000000000000000000000000000000000081525081565b5f805f8573ffffffffffffffffffffffffffffffffffffffff1673ffffffffffffffffffffffffffffffffffffffff1681526020019081526020015f2054821115610375575f80fd5b60015f8573ffffffffffffffffffffffffffffffffffffffff1673ffffffffffffffffffffffffffffffffffffffff1681526020019081526020015f205f3373ffffffffffffffffffffffffffffffffffffffff1673ffffffffffffffffffffffffffffffffffffffff1681526020019081526020015f20548211156103f9575f80fd5b815f808673ffffffffffffffffffffffffffffffffffffffff1673ffffffffffffffffffffffffffffffffffffffff1681526020019081526020015f20546104419190610c12565b5f808673ffffffffffffffffffffffffffffffffffffffff1673ffffffffffffffffffffffffffffffffffffffff1681526020019081526020015f20819055508160015f8673ffffffffffffffffffffffffffffffffffffffff1673ffffffffffffffffffffffffffffffffffffffff1681526020019081526020015f205f3373ffffffffffffffffffffffffffffffffffffffff1673ffffffffffffffffffffffffffffffffffffffff1681526020019081526020015f20546105059190610c12565b60015f8673ffffffffffffffffffffffffffffffffffffffff1673ffffffffffffffffffffffffffffffffffffffff1681526020019081526020015f205f3373ffffffffffffffffffffffffffffffffffffffff1673ffffffffffffffffffffffffffffffffffffffff1681526020019081526020015f2081905550815f808573ffffffffffffffffffffffffffffffffffffffff1673ffffffffffffffffffffffffffffffffffffffff1681526020019081526020015f208190555f808573ffffffffffffffffffffffffffffffffffffffff1673ffffffffffffffffffffffffffffffffffffffff1681526020019081526020015f20819055508273ffffffffffffffffffffffffffffffffffffffff168473ffffffffffffffffffffffffffffffffffffffff167fddf252ad1be2c89b69c2b068fc378daa952ba7f163c4a11628f55a4df523b3ef8460405161065e9190610a4f565b60405180910390a3600190509392505050565b6040518060400160405280600381526020017f445454000000000000000000000000000000000000000000000000000000000081525081565b601281565b5f805f8373ffffffffffffffffffffffffffffffffffffffff1673ffffffffffffffffffffffffffffffffffffffff1681526020019081526020015f20549050919050565b5f805f3373ffffffffffffffffffffffffffffffffffffffff1673ffffffffffffffffffffffffffffffffffffffff1681526020019081526020015f205482111561073d575f80fd5b815f803373ffffffffffffffffffffffffffffffffffffffff1673ffffffffffffffffffffffffffffffffffffffff1681526020019081526020015f20546107859190610c12565b5f803373ffffffffffffffffffffffffffffffffffffffff1673ffffffffffffffffffffffffffffffffffffffff1681526020019081526020015f2081905550815f808573ffffffffffffffffffffffffffffffffffffffff1673ffffffffffffffffffffffffffffffffffffffff1681526020019081526020015f205461080d9190610c45565b5f808573ffffffffffffffffffffffffffffffffffffffff1673ffffffffffffffffffffffffffffffffffffffff1681526020019081526020015f20819055508273ffffffffffffffffffffffffffffffffffffffff163373ffffffffffffffffffffffffffffffffffffffff167fddf252ad1be2c89b69c2b068fc378daa952ba7f163c4a11628f55a4df523b3ef846040516108aa9190610a4f565b60405180910390a36001905092915050565b5f60015f8473ffffffffffffffffffffffffffffffffffffffff1673ffffffffffffffffffffffffffffffffffffffff1681526020019081526020015f205f8373ffffffffffffffffffffffffffffffffffffffff1673ffffffffffffffffffffffffffffffffffffffff1681526020019081526020015f2054905092915050565b5f80fd5b5f73ffffffffffffffffffffffffffffffffffffffff82169050919050565b5f61096b82610942565b9050919050565b61097b81610961565b8114610985575f80fd5b50565b5f8135905061099681610972565b92915050565b5f819050919050565b6109ae8161099c565b81146109b8575f80fd5b50565b5f813590506109c9816109a5565b92915050565b5f80604083850312156109e5576109e461093e565b5b5f6109f285828601610988565b9250506020610a03858286016109bb565b9150509250929050565b5f8115159050919050565b610a2181610a0d565b82525050565b5f602082019050610a3a5f830184610a18565b92915050565b610a498161099c565b82525050565b5f602082019050610a625f830184610a40565b92915050565b5f81519050919050565b5f82825260208201905092915050565b8281835e5f83830152505050565b5f601f19601f8301169050919050565b5f610aaa82610a68565b610ab48185610a72565b9350610ac4818560208601610a82565b610acd81610a90565b840191505092915050565b5f6020820190508181035f830152610af08184610aa0565b905092915050565b5f805f60608486031215610b0f57610b0e61093e565b5b5f610b1c86828701610988565b9350506020610b2d86828701610988565b9250506040610b3e868287016109bb565b9150509250925092565b5f60ff82169050919050565b610b5d81610b48565b82525050565b5f602082019050610b765f830184610b54565b92915050565b5f60208284031215610b9157610b9061093e565b5b5f610b9e84828501610988565b91505092915050565b5f8060408385031215610bbd57610bbc61093e565b5b5f610bca85828601610988565b9250506020610bdb85828601610988565b9150509250929050565b7f4e487b71000000000000000000000000000000000000000000000000000000005f52601160045260245ffd5b5f610c1c8261099c565b9150610c278361099c565b9250828203905081811115610c3f57610c3e610be5565b5b92915050565b5f610c4f8261099c565b9150610c5a8361099c565b9250828201905080821115610c7257610c71610be5565b5b9291505056fea2646970667358221220ddfbde6ab74855cbbd540a82d1f87e39d9de3619882e7dbb4bd9ecf3e8fe31f964736f6c634300081a0033",
					"opcodes": "PUSH1 0x80 PUSH1 0x40 MSTORE PUSH8 0x8AC7230489E80000 PUSH1 0x2 SSTORE CALLVALUE DUP1 ISZERO PUSH1 0x1A JUMPI PUSH0 DUP1 REVERT JUMPDEST POP PUSH1 0x2 SLOAD PUSH0 DUP1 CALLER PUSH20 0xFFFFFFFFFFFFFFFFFFFFFFFFFFFFFFFFFFFFFFFF AND PUSH20 0xFFFFFFFFFFFFFFFFFFFFFFFFFFFFFFFFFFFFFFFF AND DUP2 MSTORE PUSH1 0x20 ADD SWAP1 DUP2 MSTORE PUSH1 0x20 ADD PUSH0 KECCAK256 DUP2 SWAP1 SSTORE POP PUSH2 0xCAE DUP1 PUSH2 0x6B PUSH0 CODECOPY PUSH0 RETURN INVALID PUSH1 0x80 PUSH1 0x40 MSTORE CALLVALUE DUP1 ISZERO PUSH2 0xF JUMPI PUSH0 DUP1 REVERT JUMPDEST POP PUSH1 0x4 CALLDATASIZE LT PUSH2 0x91 JUMPI PUSH0 CALLDATALOAD PUSH1 0xE0 SHR DUP1 PUSH4 0x2A905318 GT PUSH2 0x64 JUMPI DUP1 PUSH4 0x2A905318 EQ PUSH2 0x131 JUMPI DUP1 PUSH4 0x313CE567 EQ PUSH2 0x14F JUMPI DUP1 PUSH4 0x70A08231 EQ PUSH2 0x16D JUMPI DUP1 PUSH4 0xA9059CBB EQ PUSH2 0x19D JUMPI DUP1 PUSH4 0xDD62ED3E EQ PUSH2 0x1CD JUMPI PUSH2 0x91 JUMP JUMPDEST DUP1 PUSH4 0x95EA7B3 EQ PUSH2 0x95 JUMPI DUP1 PUSH4 0x18160DDD EQ PUSH2 0xC5 JUMPI DUP1 PUSH4 0x18821400 EQ PUSH2 0xE3 JUMPI DUP1 PUSH4 0x23B872DD EQ PUSH2 0x101 JUMPI JUMPDEST PUSH0 DUP1 REVERT JUMPDEST PUSH2 0xAF PUSH1 0x4 DUP1 CALLDATASIZE SUB DUP2 ADD SWAP1 PUSH2 0xAA SWAP2 SWAP1 PUSH2 0x9CF JUMP JUMPDEST PUSH2 0x1FD JUMP JUMPDEST PUSH1 0x40 MLOAD PUSH2 0xBC SWAP2 SWAP1 PUSH2 0xA27 JUMP JUMPDEST PUSH1 0x40 MLOAD DUP1 SWAP2 SUB SWAP1 RETURN JUMPDEST PUSH2 0xCD PUSH2 0x2EA JUMP JUMPDEST PUSH1 0x40 MLOAD PUSH2 0xDA SWAP2 SWAP1 PUSH2 0xA4F JUMP JUMPDEST PUSH1 0x40 MLOAD DUP1 SWAP2 SUB SWAP1 RETURN JUMPDEST PUSH2 0xEB PUSH2 0x2F3 JUMP JUMPDEST PUSH1 0x40 MLOAD PUSH2 0xF8 SWAP2 SWAP1 PUSH2 0xAD8 JUMP JUMPDEST PUSH1 0x40 MLOAD DUP1 SWAP2 SUB SWAP1 RETURN JUMPDEST PUSH2 0x11B PUSH1 0x4 DUP1 CALLDATASIZE SUB DUP2 ADD SWAP1 PUSH2 0x116 SWAP2 SWAP1 PUSH2 0xAF8 JUMP JUMPDEST PUSH2 0x32C JUMP JUMPDEST PUSH1 0x40 MLOAD PUSH2 0x128 SWAP2 SWAP1 PUSH2 0xA27 JUMP JUMPDEST PUSH1 0x40 MLOAD DUP1 SWAP2 SUB SWAP1 RETURN JUMPDEST PUSH2 0x139 PUSH2 0x671 JUMP JUMPDEST PUSH1 0x40 MLOAD PUSH2 0x146 SWAP2 SWAP1 PUSH2 0xAD8 JUMP JUMPDEST PUSH1 0x40 MLOAD DUP1 SWAP2 SUB SWAP1 RETURN JUMPDEST PUSH2 0x157 PUSH2 0x6AA JUMP JUMPDEST PUSH1 0x40 MLOAD PUSH2 0x164 SWAP2 SWAP1 PUSH2 0xB63 JUMP JUMPDEST PUSH1 0x40 MLOAD DUP1 SWAP2 SUB SWAP1 RETURN JUMPDEST PUSH2 0x187 PUSH1 0x4 DUP1 CALLDATASIZE SUB DUP2 ADD SWAP1 PUSH2 0x182 SWAP2 SWAP1 PUSH2 0xB7C JUMP JUMPDEST PUSH2 0x6AF JUMP JUMPDEST PUSH1 0x40 MLOAD PUSH2 0x194 SWAP2 SWAP1 PUSH2 0xA4F JUMP JUMPDEST PUSH1 0x40 MLOAD DUP1 SWAP2 SUB SWAP1 RETURN JUMPDEST PUSH2 0x1B7 PUSH1 0x4 DUP1 CALLDATASIZE SUB DUP2 ADD SWAP1 PUSH2 0x1B2 SWAP2 SWAP1 PUSH2 0x9CF JUMP JUMPDEST PUSH2 0x6F4 JUMP JUMPDEST PUSH1 0x40 MLOAD PUSH2 0x1C4 SWAP2 SWAP1 PUSH2 0xA27 JUMP JUMPDEST PUSH1 0x40 MLOAD DUP1 SWAP2 SUB SWAP1 RETURN JUMPDEST PUSH2 0x1E7 PUSH1 0x4 DUP1 CALLDATASIZE SUB DUP2 ADD SWAP1 PUSH2 0x1E2 SWAP2 SWAP1 PUSH2 0xBA7 JUMP JUMPDEST PUSH2 0x8BC JUMP JUMPDEST PUSH1 0x40 MLOAD PUSH2 0x1F4 SWAP2 SWAP1 PUSH2 0xA4F JUMP JUMPDEST PUSH1 0x40 MLOAD DUP1 SWAP2 SUB SWAP1 RETURN JUMPDEST PUSH0 DUP2 PUSH1 0x1 PUSH0 CALLER PUSH20 0xFFFFFFFFFFFFFFFFFFFFFFFFFFFFFFFFFFFFFFFF AND PUSH20 0xFFFFFFFFFFFFFFFFFFFFFFFFFFFFFFFFFFFFFFFF AND DUP2 MSTORE PUSH1 0x20 ADD SWAP1 DUP2 MSTORE PUSH1 0x20 ADD PUSH0 KECCAK256 PUSH0 DUP6 PUSH20 0xFFFFFFFFFFFFFFFFFFFFFFFFFFFFFFFFFFFFFFFF AND PUSH20 0xFFFFFFFFFFFFFFFFFFFFFFFFFFFFFFFFFFFFFFFF AND DUP2 MSTORE PUSH1 0x20 ADD SWAP1 DUP2 MSTORE PUSH1 0x20 ADD PUSH0 KECCAK256 DUP2 SWAP1 SSTORE POP DUP3 PUSH20 0xFFFFFFFFFFFFFFFFFFFFFFFFFFFFFFFFFFFFFFFF AND CALLER PUSH20 0xFFFFFFFFFFFFFFFFFFFFFFFFFFFFFFFFFFFFFFFF AND PUSH32 0x8C5BE1E5EBEC7D5BD14F71427D1E84F3DD0314C0F7B2291E5B200AC8C7C3B925 DUP5 PUSH1 0x40 MLOAD PUSH2 0x2D8 SWAP2 SWAP1 PUSH2 0xA4F JUMP JUMPDEST PUSH1 0x40 MLOAD DUP1 SWAP2 SUB SWAP1 LOG3 PUSH1 0x1 SWAP1 POP SWAP3 SWAP2 POP POP JUMP JUMPDEST PUSH0 PUSH1 0x2 SLOAD SWAP1 POP SWAP1 JUMP JUMPDEST PUSH1 0x40 MLOAD DUP1 PUSH1 0x40 ADD PUSH1 0x40 MSTORE DUP1 PUSH1 0xE DUP2 MSTORE PUSH1 0x20 ADD PUSH32 0x44494F20546F6B656E2054657374000000000000000000000000000000000000 DUP2 MSTORE POP DUP2 JUMP JUMPDEST PUSH0 DUP1 PUSH0 DUP6 PUSH20 0xFFFFFFFFFFFFFFFFFFFFFFFFFFFFFFFFFFFFFFFF AND PUSH20 0xFFFFFFFFFFFFFFFFFFFFFFFFFFFFFFFFFFFFFFFF AND DUP2 MSTORE PUSH1 0x20 ADD SWAP1 DUP2 MSTORE PUSH1 0x20 ADD PUSH0 KECCAK256 SLOAD DUP3 GT ISZERO PUSH2 0x375 JUMPI PUSH0 DUP1 REVERT JUMPDEST PUSH1 0x1 PUSH0 DUP6 PUSH20 0xFFFFFFFFFFFFFFFFFFFFFFFFFFFFFFFFFFFFFFFF AND PUSH20 0xFFFFFFFFFFFFFFFFFFFFFFFFFFFFFFFFFFFFFFFF AND DUP2 MSTORE PUSH1 0x20 ADD SWAP1 DUP2 MSTORE PUSH1 0x20 ADD PUSH0 KECCAK256 PUSH0 CALLER PUSH20 0xFFFFFFFFFFFFFFFFFFFFFFFFFFFFFFFFFFFFFFFF AND PUSH20 0xFFFFFFFFFFFFFFFFFFFFFFFFFFFFFFFFFFFFFFFF AND DUP2 MSTORE PUSH1 0x20 ADD SWAP1 DUP2 MSTORE PUSH1 0x20 ADD PUSH0 KECCAK256 SLOAD DUP3 GT ISZERO PUSH2 0x3F9 JUMPI PUSH0 DUP1 REVERT JUMPDEST DUP2 PUSH0 DUP1 DUP7 PUSH20 0xFFFFFFFFFFFFFFFFFFFFFFFFFFFFFFFFFFFFFFFF AND PUSH20 0xFFFFFFFFFFFFFFFFFFFFFFFFFFFFFFFFFFFFFFFF AND DUP2 MSTORE PUSH1 0x20 ADD SWAP1 DUP2 MSTORE PUSH1 0x20 ADD PUSH0 KECCAK256 SLOAD PUSH2 0x441 SWAP2 SWAP1 PUSH2 0xC12 JUMP JUMPDEST PUSH0 DUP1 DUP7 PUSH20 0xFFFFFFFFFFFFFFFFFFFFFFFFFFFFFFFFFFFFFFFF AND PUSH20 0xFFFFFFFFFFFFFFFFFFFFFFFFFFFFFFFFFFFFFFFF AND DUP2 MSTORE PUSH1 0x20 ADD SWAP1 DUP2 MSTORE PUSH1 0x20 ADD PUSH0 KECCAK256 DUP2 SWAP1 SSTORE POP DUP2 PUSH1 0x1 PUSH0 DUP7 PUSH20 0xFFFFFFFFFFFFFFFFFFFFFFFFFFFFFFFFFFFFFFFF AND PUSH20 0xFFFFFFFFFFFFFFFFFFFFFFFFFFFFFFFFFFFFFFFF AND DUP2 MSTORE PUSH1 0x20 ADD SWAP1 DUP2 MSTORE PUSH1 0x20 ADD PUSH0 KECCAK256 PUSH0 CALLER PUSH20 0xFFFFFFFFFFFFFFFFFFFFFFFFFFFFFFFFFFFFFFFF AND PUSH20 0xFFFFFFFFFFFFFFFFFFFFFFFFFFFFFFFFFFFFFFFF AND DUP2 MSTORE PUSH1 0x20 ADD SWAP1 DUP2 MSTORE PUSH1 0x20 ADD PUSH0 KECCAK256 SLOAD PUSH2 0x505 SWAP2 SWAP1 PUSH2 0xC12 JUMP JUMPDEST PUSH1 0x1 PUSH0 DUP7 PUSH20 0xFFFFFFFFFFFFFFFFFFFFFFFFFFFFFFFFFFFFFFFF AND PUSH20 0xFFFFFFFFFFFFFFFFFFFFFFFFFFFFFFFFFFFFFFFF AND DUP2 MSTORE PUSH1 0x20 ADD SWAP1 DUP2 MSTORE PUSH1 0x20 ADD PUSH0 KECCAK256 PUSH0 CALLER PUSH20 0xFFFFFFFFFFFFFFFFFFFFFFFFFFFFFFFFFFFFFFFF AND PUSH20 0xFFFFFFFFFFFFFFFFFFFFFFFFFFFFFFFFFFFFFFFF AND DUP2 MSTORE PUSH1 0x20 ADD SWAP1 DUP2 MSTORE PUSH1 0x20 ADD PUSH0 KECCAK256 DUP2 SWAP1 SSTORE POP DUP2 PUSH0 DUP1 DUP6 PUSH20 0xFFFFFFFFFFFFFFFFFFFFFFFFFFFFFFFFFFFFFFFF AND PUSH20 0xFFFFFFFFFFFFFFFFFFFFFFFFFFFFFFFFFFFFFFFF AND DUP2 MSTORE PUSH1 0x20 ADD SWAP1 DUP2 MSTORE PUSH1 0x20 ADD PUSH0 KECCAK256 DUP2 SWAP1 SSTORE PUSH0 DUP1 DUP6 PUSH20 0xFFFFFFFFFFFFFFFFFFFFFFFFFFFFFFFFFFFFFFFF AND PUSH20 0xFFFFFFFFFFFFFFFFFFFFFFFFFFFFFFFFFFFFFFFF AND DUP2 MSTORE PUSH1 0x20 ADD SWAP1 DUP2 MSTORE PUSH1 0x20 ADD PUSH0 KECCAK256 DUP2 SWAP1 SSTORE POP DUP3 PUSH20 0xFFFFFFFFFFFFFFFFFFFFFFFFFFFFFFFFFFFFFFFF AND DUP5 PUSH20 0xFFFFFFFFFFFFFFFFFFFFFFFFFFFFFFFFFFFFFFFF AND PUSH32 0xDDF252AD1BE2C89B69C2B068FC378DAA952BA7F163C4A11628F55A4DF523B3EF DUP5 PUSH1 0x40 MLOAD PUSH2 0x65E SWAP2 SWAP1 PUSH2 0xA4F JUMP JUMPDEST PUSH1 0x40 MLOAD DUP1 SWAP2 SUB SWAP1 LOG3 PUSH1 0x1 SWAP1 POP SWAP4 SWAP3 POP POP POP JUMP JUMPDEST PUSH1 0x40 MLOAD DUP1 PUSH1 0x40 ADD PUSH1 0x40 MSTORE DUP1 PUSH1 0x3 DUP2 MSTORE PUSH1 0x20 ADD PUSH32 0x4454540000000000000000000000000000000000000000000000000000000000 DUP2 MSTORE POP DUP2 JUMP JUMPDEST PUSH1 0x12 DUP2 JUMP JUMPDEST PUSH0 DUP1 PUSH0 DUP4 PUSH20 0xFFFFFFFFFFFFFFFFFFFFFFFFFFFFFFFFFFFFFFFF AND PUSH20 0xFFFFFFFFFFFFFFFFFFFFFFFFFFFFFFFFFFFFFFFF AND DUP2 MSTORE PUSH1 0x20 ADD SWAP1 DUP2 MSTORE PUSH1 0x20 ADD PUSH0 KECCAK256 SLOAD SWAP1 POP SWAP2 SWAP1 POP JUMP JUMPDEST PUSH0 DUP1 PUSH0 CALLER PUSH20 0xFFFFFFFFFFFFFFFFFFFFFFFFFFFFFFFFFFFFFFFF AND PUSH20 0xFFFFFFFFFFFFFFFFFFFFFFFFFFFFFFFFFFFFFFFF AND DUP2 MSTORE PUSH1 0x20 ADD SWAP1 DUP2 MSTORE PUSH1 0x20 ADD PUSH0 KECCAK256 SLOAD DUP3 GT ISZERO PUSH2 0x73D JUMPI PUSH0 DUP1 REVERT JUMPDEST DUP2 PUSH0 DUP1 CALLER PUSH20 0xFFFFFFFFFFFFFFFFFFFFFFFFFFFFFFFFFFFFFFFF AND PUSH20 0xFFFFFFFFFFFFFFFFFFFFFFFFFFFFFFFFFFFFFFFF AND DUP2 MSTORE PUSH1 0x20 ADD SWAP1 DUP2 MSTORE PUSH1 0x20 ADD PUSH0 KECCAK256 SLOAD PUSH2 0x785 SWAP2 SWAP1 PUSH2 0xC12 JUMP JUMPDEST PUSH0 DUP1 CALLER PUSH20 0xFFFFFFFFFFFFFFFFFFFFFFFFFFFFFFFFFFFFFFFF AND PUSH20 0xFFFFFFFFFFFFFFFFFFFFFFFFFFFFFFFFFFFFFFFF AND DUP2 MSTORE PUSH1 0x20 ADD SWAP1 DUP2 MSTORE PUSH1 0x20 ADD PUSH0 KECCAK256 DUP2 SWAP1 SSTORE POP DUP2 PUSH0 DUP1 DUP6 PUSH20 0xFFFFFFFFFFFFFFFFFFFFFFFFFFFFFFFFFFFFFFFF AND PUSH20 0xFFFFFFFFFFFFFFFFFFFFFFFFFFFFFFFFFFFFFFFF AND DUP2 MSTORE PUSH1 0x20 ADD SWAP1 DUP2 MSTORE PUSH1 0x20 ADD PUSH0 KECCAK256 SLOAD PUSH2 0x80D SWAP2 SWAP1 PUSH2 0xC45 JUMP JUMPDEST PUSH0 DUP1 DUP6 PUSH20 0xFFFFFFFFFFFFFFFFFFFFFFFFFFFFFFFFFFFFFFFF AND PUSH20 0xFFFFFFFFFFFFFFFFFFFFFFFFFFFFFFFFFFFFFFFF AND DUP2 MSTORE PUSH1 0x20 ADD SWAP1 DUP2 MSTORE PUSH1 0x20 ADD PUSH0 KECCAK256 DUP2 SWAP1 SSTORE POP DUP3 PUSH20 0xFFFFFFFFFFFFFFFFFFFFFFFFFFFFFFFFFFFFFFFF AND CALLER PUSH20 0xFFFFFFFFFFFFFFFFFFFFFFFFFFFFFFFFFFFFFFFF AND PUSH32 0xDDF252AD1BE2C89B69C2B068FC378DAA952BA7F163C4A11628F55A4DF523B3EF DUP5 PUSH1 0x40 MLOAD PUSH2 0x8AA SWAP2 SWAP1 PUSH2 0xA4F JUMP JUMPDEST PUSH1 0x40 MLOAD DUP1 SWAP2 SUB SWAP1 LOG3 PUSH1 0x1 SWAP1 POP SWAP3 SWAP2 POP POP JUMP JUMPDEST PUSH0 PUSH1 0x1 PUSH0 DUP5 PUSH20 0xFFFFFFFFFFFFFFFFFFFFFFFFFFFFFFFFFFFFFFFF AND PUSH20 0xFFFFFFFFFFFFFFFFFFFFFFFFFFFFFFFFFFFFFFFF AND DUP2 MSTORE PUSH1 0x20 ADD SWAP1 DUP2 MSTORE PUSH1 0x20 ADD PUSH0 KECCAK256 PUSH0 DUP4 PUSH20 0xFFFFFFFFFFFFFFFFFFFFFFFFFFFFFFFFFFFFFFFF AND PUSH20 0xFFFFFFFFFFFFFFFFFFFFFFFFFFFFFFFFFFFFFFFF AND DUP2 MSTORE PUSH1 0x20 ADD SWAP1 DUP2 MSTORE PUSH1 0x20 ADD PUSH0 KECCAK256 SLOAD SWAP1 POP SWAP3 SWAP2 POP POP JUMP JUMPDEST PUSH0 DUP1 REVERT JUMPDEST PUSH0 PUSH20 0xFFFFFFFFFFFFFFFFFFFFFFFFFFFFFFFFFFFFFFFF DUP3 AND SWAP1 POP SWAP2 SWAP1 POP JUMP JUMPDEST PUSH0 PUSH2 0x96B DUP3 PUSH2 0x942 JUMP JUMPDEST SWAP1 POP SWAP2 SWAP1 POP JUMP JUMPDEST PUSH2 0x97B DUP2 PUSH2 0x961 JUMP JUMPDEST DUP2 EQ PUSH2 0x985 JUMPI PUSH0 DUP1 REVERT JUMPDEST POP JUMP JUMPDEST PUSH0 DUP2 CALLDATALOAD SWAP1 POP PUSH2 0x996 DUP2 PUSH2 0x972 JUMP JUMPDEST SWAP3 SWAP2 POP POP JUMP JUMPDEST PUSH0 DUP2 SWAP1 POP SWAP2 SWAP1 POP JUMP JUMPDEST PUSH2 0x9AE DUP2 PUSH2 0x99C JUMP JUMPDEST DUP2 EQ PUSH2 0x9B8 JUMPI PUSH0 DUP1 REVERT JUMPDEST POP JUMP JUMPDEST PUSH0 DUP2 CALLDATALOAD SWAP1 POP PUSH2 0x9C9 DUP2 PUSH2 0x9A5 JUMP JUMPDEST SWAP3 SWAP2 POP POP JUMP JUMPDEST PUSH0 DUP1 PUSH1 0x40 DUP4 DUP6 SUB SLT ISZERO PUSH2 0x9E5 JUMPI PUSH2 0x9E4 PUSH2 0x93E JUMP JUMPDEST JUMPDEST PUSH0 PUSH2 0x9F2 DUP6 DUP3 DUP7 ADD PUSH2 0x988 JUMP JUMPDEST SWAP3 POP POP PUSH1 0x20 PUSH2 0xA03 DUP6 DUP3 DUP7 ADD PUSH2 0x9BB JUMP JUMPDEST SWAP2 POP POP SWAP3 POP SWAP3 SWAP1 POP JUMP JUMPDEST PUSH0 DUP2 ISZERO ISZERO SWAP1 POP SWAP2 SWAP1 POP JUMP JUMPDEST PUSH2 0xA21 DUP2 PUSH2 0xA0D JUMP JUMPDEST DUP3 MSTORE POP POP JUMP JUMPDEST PUSH0 PUSH1 0x20 DUP3 ADD SWAP1 POP PUSH2 0xA3A PUSH0 DUP4 ADD DUP5 PUSH2 0xA18 JUMP JUMPDEST SWAP3 SWAP2 POP POP JUMP JUMPDEST PUSH2 0xA49 DUP2 PUSH2 0x99C JUMP JUMPDEST DUP3 MSTORE POP POP JUMP JUMPDEST PUSH0 PUSH1 0x20 DUP3 ADD SWAP1 POP PUSH2 0xA62 PUSH0 DUP4 ADD DUP5 PUSH2 0xA40 JUMP JUMPDEST SWAP3 SWAP2 POP POP JUMP JUMPDEST PUSH0 DUP2 MLOAD SWAP1 POP SWAP2 SWAP1 POP JUMP JUMPDEST PUSH0 DUP3 DUP3 MSTORE PUSH1 0x20 DUP3 ADD SWAP1 POP SWAP3 SWAP2 POP POP JUMP JUMPDEST DUP3 DUP2 DUP4 MCOPY PUSH0 DUP4 DUP4 ADD MSTORE POP POP POP JUMP JUMPDEST PUSH0 PUSH1 0x1F NOT PUSH1 0x1F DUP4 ADD AND SWAP1 POP SWAP2 SWAP1 POP JUMP JUMPDEST PUSH0 PUSH2 0xAAA DUP3 PUSH2 0xA68 JUMP JUMPDEST PUSH2 0xAB4 DUP2 DUP6 PUSH2 0xA72 JUMP JUMPDEST SWAP4 POP PUSH2 0xAC4 DUP2 DUP6 PUSH1 0x20 DUP7 ADD PUSH2 0xA82 JUMP JUMPDEST PUSH2 0xACD DUP2 PUSH2 0xA90 JUMP JUMPDEST DUP5 ADD SWAP2 POP POP SWAP3 SWAP2 POP POP JUMP JUMPDEST PUSH0 PUSH1 0x20 DUP3 ADD SWAP1 POP DUP2 DUP2 SUB PUSH0 DUP4 ADD MSTORE PUSH2 0xAF0 DUP2 DUP5 PUSH2 0xAA0 JUMP JUMPDEST SWAP1 POP SWAP3 SWAP2 POP POP JUMP JUMPDEST PUSH0 DUP1 PUSH0 PUSH1 0x60 DUP5 DUP7 SUB SLT ISZERO PUSH2 0xB0F JUMPI PUSH2 0xB0E PUSH2 0x93E JUMP JUMPDEST JUMPDEST PUSH0 PUSH2 0xB1C DUP7 DUP3 DUP8 ADD PUSH2 0x988 JUMP JUMPDEST SWAP4 POP POP PUSH1 0x20 PUSH2 0xB2D DUP7 DUP3 DUP8 ADD PUSH2 0x988 JUMP JUMPDEST SWAP3 POP POP PUSH1 0x40 PUSH2 0xB3E DUP7 DUP3 DUP8 ADD PUSH2 0x9BB JUMP JUMPDEST SWAP2 POP POP SWAP3 POP SWAP3 POP SWAP3 JUMP JUMPDEST PUSH0 PUSH1 0xFF DUP3 AND SWAP1 POP SWAP2 SWAP1 POP JUMP JUMPDEST PUSH2 0xB5D DUP2 PUSH2 0xB48 JUMP JUMPDEST DUP3 MSTORE POP POP JUMP JUMPDEST PUSH0 PUSH1 0x20 DUP3 ADD SWAP1 POP PUSH2 0xB76 PUSH0 DUP4 ADD DUP5 PUSH2 0xB54 JUMP JUMPDEST SWAP3 SWAP2 POP POP JUMP JUMPDEST PUSH0 PUSH1 0x20 DUP3 DUP5 SUB SLT ISZERO PUSH2 0xB91 JUMPI PUSH2 0xB90 PUSH2 0x93E JUMP JUMPDEST JUMPDEST PUSH0 PUSH2 0xB9E DUP5 DUP3 DUP6 ADD PUSH2 0x988 JUMP JUMPDEST SWAP2 POP POP SWAP3 SWAP2 POP POP JUMP JUMPDEST PUSH0 DUP1 PUSH1 0x40 DUP4 DUP6 SUB SLT ISZERO PUSH2 0xBBD JUMPI PUSH2 0xBBC PUSH2 0x93E JUMP JUMPDEST JUMPDEST PUSH0 PUSH2 0xBCA DUP6 DUP3 DUP7 ADD PUSH2 0x988 JUMP JUMPDEST SWAP3 POP POP PUSH1 0x20 PUSH2 0xBDB DUP6 DUP3 DUP7 ADD PUSH2 0x988 JUMP JUMPDEST SWAP2 POP POP SWAP3 POP SWAP3 SWAP1 POP JUMP JUMPDEST PUSH32 0x4E487B7100000000000000000000000000000000000000000000000000000000 PUSH0 MSTORE PUSH1 0x11 PUSH1 0x4 MSTORE PUSH1 0x24 PUSH0 REVERT JUMPDEST PUSH0 PUSH2 0xC1C DUP3 PUSH2 0x99C JUMP JUMPDEST SWAP2 POP PUSH2 0xC27 DUP4 PUSH2 0x99C JUMP JUMPDEST SWAP3 POP DUP3 DUP3 SUB SWAP1 POP DUP2 DUP2 GT ISZERO PUSH2 0xC3F JUMPI PUSH2 0xC3E PUSH2 0xBE5 JUMP JUMPDEST JUMPDEST SWAP3 SWAP2 POP POP JUMP JUMPDEST PUSH0 PUSH2 0xC4F DUP3 PUSH2 0x99C JUMP JUMPDEST SWAP2 POP PUSH2 0xC5A DUP4 PUSH2 0x99C JUMP JUMPDEST SWAP3 POP DUP3 DUP3 ADD SWAP1 POP DUP1 DUP3 GT ISZERO PUSH2 0xC72 JUMPI PUSH2 0xC71 PUSH2 0xBE5 JUMP JUMPDEST JUMPDEST SWAP3 SWAP2 POP POP JUMP INVALID LOG2 PUSH5 0x6970667358 0x22 SLT KECCAK256 0xDD 0xFB 0xDE PUSH11 0xB74855CBBD540A82D1F87E CODECOPY 0xD9 0xDE CALLDATASIZE NOT DUP9 0x2E PUSH30 0xBB4BD9ECF3E8FE31F964736F6C634300081A003300000000000000000000 "
				},
				"gasEstimates": {
					"creation": {
						"codeDepositCost": "649200",
						"executionCost": "47088",
						"totalCost": "696288"
					},
					"external": {
						"TOKEN_NAME()": "infinite",
						"TOKEN_SYMBOL()": "infinite",
						"allowance(address,address)": "infinite",
						"approve(address,uint256)": "infinite",
						"balanceOf(address)": "2873",
						"decimals()": "353",
						"totalSupply()": "2455",
						"transfer(address,uint256)": "infinite",
						"transferFrom(address,address,uint256)": "infinite"
					}
				},
				"methodIdentifiers": {
					"TOKEN_NAME()": "18821400",
					"TOKEN_SYMBOL()": "2a905318",
					"allowance(address,address)": "dd62ed3e",
					"approve(address,uint256)": "095ea7b3",
					"balanceOf(address)": "70a08231",
					"decimals()": "313ce567",
					"totalSupply()": "18160ddd",
					"transfer(address,uint256)": "a9059cbb",
					"transferFrom(address,address,uint256)": "23b872dd"
				}
			},
			"storageLayout": {
				"storage": [
					{
						"astId": 83,
						"contract": "DIOToken.sol:DioToken",
						"label": "balances",
						"offset": 0,
						"slot": "0",
						"type": "t_mapping(t_address,t_uint256)"
					},
					{
						"astId": 89,
						"contract": "DIOToken.sol:DioToken",
						"label": "allowed",
						"offset": 0,
						"slot": "1",
						"type": "t_mapping(t_address,t_mapping(t_address,t_uint256))"
					},
					{
						"astId": 92,
						"contract": "DIOToken.sol:DioToken",
						"label": "totalSupply_",
						"offset": 0,
						"slot": "2",
						"type": "t_uint256"
					}
				],
				"types": {
					"t_address": {
						"encoding": "inplace",
						"label": "address",
						"numberOfBytes": "20"
					},
					"t_mapping(t_address,t_mapping(t_address,t_uint256))": {
						"encoding": "mapping",
						"key": "t_address",
						"label": "mapping(address => mapping(address => uint256))",
						"numberOfBytes": "32",
						"value": "t_mapping(t_address,t_uint256)"
					},
					"t_mapping(t_address,t_uint256)": {
						"encoding": "mapping",
						"key": "t_address",
						"label": "mapping(address => uint256)",
						"numberOfBytes": "32",
						"value": "t_uint256"
					},
					"t_uint256": {
						"encoding": "inplace",
						"label": "uint256",
						"numberOfBytes": "32"
					}
				}
			},
			"userdoc": {
				"kind": "user",
				"methods": {},
				"version": 1
			}
		}
	}
}